:020000040800F2
:10000000D0090020A9010008B1010008B3010008CF
:10001000B5010008B7010008B901000800000000A0
:10002000000000000000000000000000BB0100080C
:10003000BD01000800000000BF010008B93D000834
:10004000C3010008C3010008C3010008C301000880
:10005000C3010008C3010008BD0E0008CB0E000854
:10006000C3010008C3010008D10E0008C301000845
:10007000C3010008C3010008C3010008C301000850
:10008000C3010008C3010008C3010008000000000C
:10009000000000000000000000000000C301000894
:1000A000C3010008C3010008C3010008C301000820
:1000B000C3010008C3010008C3010008C301000810
:1000C000C3010008C3010008C3010008C301000800
:1000D000C3010008C30100084142000800000000FD
:1000E000C30E0008C3010008C3010008000000009F
:1000F000000000000000000000000000C301000834
:1001000000000000C3010008C3010008C30100088B
:1001100000000000000000000000000000000000DF
:10012000C3010008C3010008C3010008C30100089F
:10013000C3010008000000000000000000000000F3
:10014000000000000000000000000000C3010008E3
:10015000C3010008C3010008C3010008C30100086F
:10016000C3010008C30100080000000000000000F7
:10017000000000000000000000000000000000007F
:1001800000000000C30100080000000000000000A3
:10019000C3010008DFF80CD000F0D2FA0048004795
:1001A00039620008D0090020064880470648004709
:1001B000FEE7FEE7FEE7FEE7FEE7FEE7FEE7FEE717
:1001C000FEE7FEE7413E0008950100082DE9FE4FDD
:1001D000804681EA0300C00F0C46009021F00041E8
:1001E00023F00045B8EB0200A94105D24046214664
:1001F00090461C460B46024623F00040104347D071
:10020000270DC7F30A00C3F30A510290401A019068
:1002100040286BDAC3F3130040F4801B0098924629
:1002200020B10023D2EB030A63EB0B0B0198594674
:10023000C0F14002504600F08DF906460D4650468A
:100240005946019A00F095F910EB0800614100242D
:1002500087EA115284EAE7731A4340D0009A62B3E6
:10026000019A012A4FEA075215DC001B61EB0201DB
:100270004FF0004202EA0752CDE90042001C41F56E
:10028000801132462B4600F0CCF903B0BDE8F08F68
:1002900040462146F9E7001B61EB0201001C41F5D5
:1002A000801300185B412018A2F5001747EB0301EB
:1002B00040EAD570B6196D4111E06D084FEA360677
:1002C00045EAC0754FEA0752001B61EB0201001CB2
:1002D00041F5801149084FEA30000019514132467A
:1002E0002B4603B0BDE8F04F00F08CB90098012216
:1002F00040000023D0EB020263EBE073009821463C
:100300004FEAE074B8EB000061EB0401E9E783F029
:1003100000435BE781F0004158E72DE9FE4F81EA99
:10032000030404F0004421F0004100944FF0000B5E
:1003300023F0004350EA01045ED052EA03045BD08C
:10034000C3F30A54C1F30A552C44A4F2F3340194C4
:10035000A0FB0254C1F3130141F48011C3F3130352
:1003600043F4801301FB024400FB034E840A970A06
:1003700044EA815447EA8357A4FB076802958D0A33
:1003800005FB07854FEA932C04FB0C542705029DBF
:100390004FEA065847EA1637B5EB08056EEB070C2F
:1003A000870E920E47EA811742EA8312A7FB0201E9
:1003B000B6EB0B0164EB00042B0D43EA0C335E1823
:1003C00044EB1C50DA465146E7FB0201C5F3130427
:1003D0004FEA0B3343EA14534FEA0432019C43EAD9
:1003E0000603A4F10C040294009CCDE900B400F0D3
:1003F00018F903B0BDE8F08F00200146F9E72DE9B8
:10040000F04D81EA030404F0004B21F0004514464E
:100410004FF0000A23F0004150EA050220D054EAD0
:1004200001021DD0C5F30A570246C5F31303C1F3F9
:100430001300C1F30A5640F4801543F48013A7EB70
:100440000608101BD64608F2FD3873EB050002D3F0
:1004500008F1010801E092185B41B8F1000F03DADE
:1004600000200146BDE8F08D00204FF480110646C3
:1004700084460EE0171B73EB050705D3121B63EBD5
:10048000050306434CEA010C49084FEA3000921874
:100490005B4150EA0107EDD152EA030012D082EA33
:1004A000040083EA0501084305D0101BAB4106D2C6
:1004B0000122002306E000224FF0004302E06FF02B
:1004C000010253101AEB06004CEB085110EB0A0026
:1004D00041EB0B01BDE8F04D00F094B80EB540F2D1
:1004E000334102910021CDE900110A460B4600F08C
:1004F00098F803B000BD00F0004230F000400AD090
:10050000C10D01F56071C0F3160042EA0151C20845
:1005100040071143704700200146704701F0004337
:1005200030B421F0004150EA010206D00A0DA2F5D4
:100530006072C1F31301002A02DC30BC0020704756
:10054000440F44EAC104C100E01830BC00EBC250C3
:1005500000F021B8202A04DB203A00FA02F1002042
:1005600070479140C2F1200320FA03F319439040F1
:100570007047202A06DBCB17203A41FA02F043EA03
:10058000E07306E041FA02F3D040C2F1200291404C
:100590000843194670470029A8BF7047401C49000E
:1005A00008BF20F00100704710B4B0FA80FC00FAD8
:1005B0000CF050EA010404BF10BC704749B1CCF103
:1005C000200421FA04F411FA0CF118BF012121438F
:1005D0000843A3EB0C01CB1D4FEA00614FEA10204A
:1005E00042BF002010BC704700EBC35010440029EC
:1005F000A4BF10BC7047401C490008BF20F0010098
:1006000010BC704710B5141E73F1000408DA401CCA
:1006100041F1000192185B411A4301D120F0010021
:1006200010BD2DE9F04D92469B4611B1B1FA81F211
:1006300002E0B0FA80F220329046FFF78BFF0446CA
:100640000F4640EA0A0041EA0B0153465A46084366
:1006500013D0114653EA010019D0C8F140025046A8
:1006600000F080F805460E46504659464246FFF7D0
:1006700071FF084305D0012004E020463946BDE85B
:10068000F08D0020054346EAE0762C4337430A9874
:100690006305E40AA0EB08000022FD0A44EA47547F
:1006A0000A3002D500200146E9E701051019694129
:1006B000DDE9084500196941BDE8F04DA2E770B5D4
:1006C00021F0004303430CD0C1F30A550024D5EBBD
:1006D000040564EB0403D617AD1AB34102DB002016
:1006E000014670BD201841EB025170BD0EB5C10F1F
:1006F00080EAE0700844CA07002140F233438DE8E5
:100700000E000A460B46FFF78CFF03B000BD000049
:1007100030B5041E71F1000404DB4FF00044404288
:1007200064EB0101141E73F1000405DB1C464FF05D
:100730000043524263EB0403994208BF904230BD2C
:10074000064C074D06E0E06840F0010394E807001E
:1007500098471034AC42F6D3FFF720FD786D0008BF
:10076000986D0008202A04DB203A21FA02F00021CB
:10077000704721FA02F3D040C2F1200291400843B1
:10078000194670472DE9F04D00231A461B1A8A417D
:1007900003DB00200146BDE8F08DC1F30A52C1F32E
:1007A000130141F480154FF0000BD10702D100185E
:1007B0006D41521E0027044640F2FF11384601EBFE
:1007C000620A3E468046024600204FF48011FFF741
:1007D000C9FFC2197141BB1846EB0100B4EB030C11
:1007E00075EB000C04D3E41A65EB000517460E46C2
:1007F000241908F101006D4180463428E3DDF91920
:1008000046EB0600091BA84103D24FF0FF32134606
:1008100001E0002213461BEB070046EB0A51BDE83E
:10082000F04DFFF7EFBE70B5C1F30A5201F000457D
:100830000024C1F3130140F2FF3341F480119A42C6
:1008400001DA002070BD40F233439A42A2F23342F3
:1008500003DC5242FFF786FF00E090402C43F1D0CA
:10086000404270BD70B58C1810F8015B15F007039D
:1008700001D110F8013B2A1106D110F8012B03E039
:1008800010F8016B01F8016B5B1EF9D12B0705D441
:100890000023521E0DD401F8013BFAE710F8013B8A
:1008A000CB1A921C03E013F8015B01F8015B521EA6
:1008B000F9D5A142D8D3002070BD000001460148FF
:1008C00000F014B8E40200200146014800F00EB820
:1008D000FC0200200146014800F008B81403002083
:1008E0000146014800F002B82C03002070B5044610
:1008F0000D46626900789047E06842682846904754
:100900002069416805F15800BDE8704008470000C3
:1009100000B50146002000F0CDFA884201D10E4812
:1009200000BD012000F0C6FA884202D10A48183002
:1009300000BD022000F0BEFA884202D106483030E5
:1009400000BD032000F0B6FA884202D102484830C8
:1009500000BD002000BD0000E402002010B5012809
:100960004FF0060006D000F043FDBDE81040072020
:1009700000F03EBD00F06EFDBDE81040072000F025
:1009800069BD10B5002000F095FA00F0E7F900F01D
:100990007DF900F0BFF8BDE810400120FFF7DEBF91
:1009A0000146014802F080B90401002001460148D7
:1009B00002F07AB9400100200146014802F074B902
:1009C0007C0100200146014802F06EB9B801002008
:1009D0000146014802F068B9F401002001460148CF
:1009E00002F062B9300200200146014802F05CB911
:1009F0006C0200200146014802F056B9A80200200E
:100A000070B514460D4600F0A9F928B121462846D4
:100A1000BDE8704002F002B9FF2070BD70B5144609
:100A20000D4600F09BF928B121462846BDE87040EC
:100A300002F094BAFF2070BD10B50C4600F08EF99C
:100A4000002804D02046BDE8104002F0BFBA10BD17
:100A500010B50C4600F082F9002804D02046BDE80D
:100A6000104002F0D3BA10BD10B50C4600F076F974
:100A7000002804D02046BDE8104002F0DFBA10BDC7
:100A800070B514460D4600F069F9002805D02146DE
:100A90002846BDE8704002F0E9BA70BD70B51C464A
:100AA00015460E4600F05AF9002806D0224629467F
:100AB0003046BDE8704002F0F5BA70BD2DE9F04156
:100AC0001C4615460E46069F00F048F9002807D040
:100AD0003B46224629463046BDE8F04102F0FEBAC8
:100AE000BDE8F08110B50C4600F038F9002804D0BC
:100AF0002046BDE8104002F009BB10BD10B50C4601
:100B000000F02CF9002804D02046BDE8104002F087
:100B100015BB10BD70B51C4C00222189606800F027
:100B2000EDFB21890122606800F0E8FB002000F065
:100B3000C1F90546154E1BE0284600F00FF9318932
:100B40000122706800F0DAFB002002F00FFB04467F
:100B500007E0204602F030FD204602F037FA641C20
:100B6000E4B2012002F002FBA042F2D26D1CEDB211
:100B7000022000F09FF9A842DED2002000F09AF98E
:100B8000BDE8704000F0EAB844030020B403002040
:100B900070B51C4615460E4600F0E0F8002806D059
:100BA000224629463046BDE8704002F0E5BA70BDE5
:100BB00070B51C4615460E4600F0D0F8002806D049
:100BC000224629463046BDE8704002F0CFBC70BDD9
:100BD00010B50C4600F0C2F8002804D02046BDE84D
:100BE000104002F0E9BC10BD10B50C4600F0B6F89C
:100BF000002804D02046BDE8104002F0F5BC10BD2E
:100C000070B51C4615460E4600F0A8F8002806D020
:100C1000224629463046BDE8704002F0FDBC70BD5A
:100C200070B51C4615460E4600F098F8002806D010
:100C3000224629463046BDE8704002F005BD70BD31
:100C400010B50C4600F08AF8002804D02046BDE814
:100C5000104002F011BD10BD10B50C4600F07EF83A
:100C6000002804D02046BDE8104002F01DBD10BD94
:100C700070B514460D4600F071F8002805D02146E5
:100C80002846BDE8704002F027BD70BD2DE9F04355
:100C90002F4C85B021682F480268114321600189DB
:100CA000009101AA11210025032682E86200406814
:100CB000694600F097F9216826480C300268114314
:100CC00021600189244F0295CDE9001740686946EB
:100CD00000F088F900221146062000F0EDFB2168A3
:100CE0001C4818300268114321600189CDE90017C2
:100CF00002954068694600F075F900221146072008
:100D000000F0DAFB002000F0D5F8A846114D0746A8
:100D100024354FF0010913E0216807EB470055F82F
:100D200020201143216005EB80000189CDE90019E5
:100D3000CDE902864068694600F054F97F1CFFB295
:100D4000022000F0B7F8B842E6D205B0BDE8F08363
:100D500030380240440300200000211003280ED246
:100D6000084A00EB4000084952F8203002EB8000AE
:100D70000B6042684A6000890881012070470020AA
:100D80007047000068030020B403002080EE801A42
:100D900010B5B5EEC00A2DED028B9FED158BF1EE6F
:100DA00010FA11EE100A06DDFFF7A5FB41EC100B5F
:100DB00003F0F6FC0FE0FFF79EFB41EC100B03F095
:100DC000EFFC9FED0D1B51EC100B53EC112BFFF7BB
:100DD000FDF941EC100B53EC182B51EC100BFFF705
:100DE0009CFAFFF79BFBBDEC028B00EE100A10BDD6
:100DF00000000000608EE240182D4454FB210940A1
:100E000010B52DED088BB0EE41BAB0EE609AF0EE61
:100E1000409A1BEE100AFFF76EFB41EC100B03F03B
:100E20002BFE9FED20AB51EC100B53EC1A2BFFF770
:100E300074FA9FED1E1B53EC112BFFF7C7F941EC21
:100E4000180B1BEE100AFFF756FB41EC100B04F0D9
:100E50009FFC53EC1A2B51EC100BFFF75EFA53EC8E
:100E6000182BFFF7CCFA41EC100B03F099FCB0EE15
:100E7000408A89EE290AF0EE608A10EE100AFFF728
:100E80003AFB41EC100B03F08BFC53EC182B51ECAC
:100E9000100BFFF79BF9FFF741FBBDEC088B00EE51
:100EA000100A10BD000000000000694000000000B2
:100EB00000C07240032800D3FF207047012000F0DB
:100EC00085B84FF4005000F081B8022000F07EB8E1
:100ED000074810B50168C90609D510210160002036
:100EE00002F02CF9BDE81040012002F027B910BD36
:100EF000143C014000487047206800082DE9F84381
:100F0000074600F03FFA284C206840F001002060BE
:100F10002068264D00F0010000904FF002092020CB
:100F20004FF00108C5F80C90C5E90008204E29468D
:100F3000304600F057F8206840F00100206020683B
:100F4000294600F0010000908020C5F80C90C5E90A
:100F50000008304600F046F8012F10D0022F21D1B2
:100F600001228021304600F0C9F9322000F022F839
:100F70003046BDE8F8430022802100F0BFB90122CD
:100F80002021304600F0BAF901228021304600F0DD
:100F9000B5F9322000F00EF800222021304600F092
:100FA000ADF9E5E7BDE8F88330380240BC05002024
:100FB0000000024031B500F0D7F9044600F0D4F942
:100FC0000099001B8842F9D338BD7047044910B519
:100FD0000A68024202D00860FFF7F7FF10BD000068
:100FE000143C01402DE9F84F044690480D468442D8
:100FF00012D08F4884420FD08E4884420CD08E4845
:10100000844209D08D48844206D08D48844203D062
:10101000C5218CA005F07AF828880004000C03D1C3
:10102000C62188A005F072F86868F8B101281DD0C3
:1010300011281BD0022819D0122817D090498842B5
:1010400014D09049884211D08F4988420ED08F49E0
:1010500088420BD08E49884208D08E49884205D0FC
:10106000032803D0C72177A005F050F8A86838B14D
:10107000012805D0022803D0C82172A005F046F847
:1010800000264FF00F0B0120B0402F68824607402A
:1010900057457DD16868022801D0122828D12869D7
:1010A000C8B1092817D0012815D0022813D0042868
:1010B00011D005280FD006280DD007280BD00828FE
:1010C00009D00A2807D00C2805D00F2803D0D92131
:1010D0005CA005F01BF8F00804EB8000026A7107C1
:1010E000C90E0BFA01F39A432B698B401343036239
:1010F00022687000032101FA00F92979804601F085
:10110000030122EA090201FA08F11143216068682B
:10111000012805D0022803D0112801D012281CD1A3
:10112000E86848B1012807D0022805D0032803D079
:10113000EC2144A004F0EAFFA168E86821EA090173
:1011400000FA08F00843A0606068297920EA0A00E4
:10115000C1F30011B14001436160E068A96820EA71
:10116000090001FA08F10143E1606868C00056D542
:101170004948016841F480410160006826F003019C
:1011800000F48040009045480A18D2F8083800E082
:1011900045E0B007010F0BFA01F083432348844276
:1011A00001D1002014E02248844201D101200FE047
:1011B0002048844201D102200AE01F48844201D124
:1011C000032005E01D48844201D1042000E00520F1
:1011D00088401843C2F80808314908686A68B8436B
:1011E000D20300D5384308602D49091D08686A6894
:1011F000B843920300D5384308602949083108688C
:101200006A68B843D20200D53843086024490C31DB
:1012100008686A68B843920200D538430860761CB3
:10122000102EFFF430AFBDE8F88F00000000024040
:101230000004024000080240000C0240001002407E
:10124000001C02402E2E5C2E2E5C44726976657264
:10125000735C53544D3332463478785F48414C5F69
:101260004472697665725C5372635C73746D333279
:10127000663478785F68616C5F6770696F2E6300B1
:1012800000001110000021100000311000001210A9
:1012900000002210000032104438024000300140AB
:1012A000003C014070B50C00054604D14FF4C871F4
:1012B00003A004F02BFF2869204000D0012070BD5E
:1012C0002E2E5C2E2E5C447269766572735C5354CC
:1012D0004D3332463478785F48414C5F44726976CA
:1012E00065725C5372635C73746D33326634787804
:1012F0005F68616C5F6770696F2E630070B515463B
:101300000C00064604D140F2B11108A004F0FEFE24
:1013100045B1012D04D04FF4D97104A004F0F6FEBC
:10132000B46170BD2004B06170BD00002E2E5C2E33
:101330002E5C447269766572735C53544D33324649
:101340003478785F48414C5F4472697665725C53CB
:1013500072635C73746D3332663478785F68616C85
:101360005F6770696F2E6300014800687047000076
:10137000B000002002480168491C0160704700006D
:10138000B00000200B4810B5016841F40071016005
:10139000016841F480610160016841F4807101607D
:1013A000032000F0D9F8002000F006F800F015F84E
:1013B000002010BD003C024010B5044600F0BEFA0B
:1013C0004FF47A71B0FBF1F001F00DF800222146E4
:1013D000501E00F071F8002010BD10B5072000F07D
:1013E000BBF80022BDE810401146501E00F064B862
:1013F00010B5040003D5E02106A004F087FE04F038
:101400001F01012088406109890001F1E021C1F834
:10141000800110BD2E2E5C2E2E5C447269766572A2
:10142000735C53544D3332463478785F48414C5F97
:101430004472697665725C5372635C73746D3332A7
:10144000663478785F68616C5F636F727465782E5C
:101450006300000010B5040003D5D02106A004F0FD
:1014600055FE04F01F01012088406109890001F147
:10147000E021C1F8000110BD2E2E5C2E2E5C4472BE
:1014800069766572735C53544D3332463478785FB5
:1014900048414C5F4472697665725C5372635C7359
:1014A000746D3332663478785F68616C5F636F7235
:1014B0007465782E6300000070B514460D4606462C
:1014C000102A03D3BC2113A004F020FE102D03D357
:1014D000BD2110A004F01AFE1E480068C0F30223CC
:1014E000C3F10700042800D90420191D072901D2DF
:1014F000002300E0DB1E012202FA00F1491E294010
:1015000099409A40521E22403046BDE87040114337
:1015100002F0FBBA2E2E5C2E2E5C44726976657248
:10152000735C53544D3332463478785F48414C5F96
:101530004472697665725C5372635C73746D3332A6
:10154000663478785F68616C5F636F727465782E5B
:10155000630000000CED00E010B5044607280BD036
:10156000062C09D0052C07D0042C05D0032C03D061
:10157000A42108A004F0CAFD164A04F0070110686F
:101580004FF6FF03184040EA01201349084310605A
:1015900010BD00002E2E5C2E2E5C447269766572A2
:1015A000735C53544D3332463478785F48414C5F16
:1015B0004472697665725C5372635C73746D333226
:1015C000663478785F68616C5F636F727465782EDB
:1015D000630000000CED00E00000FA052DE9F05F6B
:1015E000044600680D46401E0E2804D94FF41871B9
:1015F000C1A004F08BFD95B1012D10D0022D0ED0AD
:10160000032D0CD0042D0AD0052D08D0062D06D0B0
:10161000072D04D040F26121B7A004F077FDDFF878
:1016200014A3DAF80000DFF8108300F00F01E8B22D
:10163000C14F814641F2883608F10808A94275D2A7
:1016400001468AF80010DAF8000000F00F00A84206
:101650006DD1207880071ED5A068A0B1802812D057
:10166000902810D0A0280ED0B0280CD0C0280AD0C6
:10167000D02808D0E02806D0F02804D040F2772106
:101680009DA004F043FDD8F80010A26821F0F001FD
:101690001143C8F800102078C0073BD0606888B1BB
:1016A000012827D0022828D0032826D040F27E2106
:1016B00091A004F02BFD606801281BD002281CD0EB
:1016C00003281AD038688007002830DAD8F80000DC
:1016D0004746616820F003000843C8F80000FFF7A0
:1016E00043FE0546606801280FD0022818D0032861
:1016F0001ED029E038688003E6E738688001E3E718
:10170000FFF732FE401BB0427DD83868C0F381003D
:101710000128F5D1ADE0FFF727FE401BB04272D89B
:101720003868C0F381000228F5D1A2E011E096E00C
:101730003868FFF719FE401BB042F9D963E0FFF7A4
:1017400013FE401BB0425ED8386810F00C0FF6D183
:101750008FE0207880071ED5A068A0B1802812D025
:10176000902810D0A0280ED0B0280CD0C0280AD0C5
:10177000D02808D0E02806D0F02804D040F2D121AB
:101780005DA004F0C3FCD8F80010A26821F0F001BD
:101790001143C8F800102078C00758D0606888B19D
:1017A000012833D0022834D0032832D04FF43671C8
:1017B00051A004F0ABFC6068012827D0022828D093
:1017C000032826D038688007002848DAD8F80010A7
:1017D000626821F003011143C8F80010FFF7C4FD4F
:1017E0000746606801281DD0022829D0032838D078
:1017F000B3464646306810F00C0F28D0FFF7B4FD12
:10180000C11B5945F6D90320BDE8F09F3868800315
:10181000DAE738688001D7E7FFF7A6FDC11B594515
:1018200002D9F0E7B34646463068C0F3810001288C
:10183000F2D10CE0FFF798FDC11B594502D9E2E750
:10184000B34646463068C0F381000228F2D18AF8D8
:101850000090DAF8000000F00F00A84209D0012043
:10186000D2E744462068FFF77FFDC01BB042F9D99C
:10187000C9E720784FF4805540074FF4A0564FF445
:10188000C0574FF4E05916D5E06860B1A8420AD0BD
:10189000B04208D0B84206D0484504D040F23231B8
:1018A00015A004F033FCD8F80010E26821F4E051F0
:1018B0001143C8F800102078000717D5206960B1DF
:1018C000A8420AD0B04208D0B84206D0484504D059
:1018D00040F2393108A004F019FCD8F80010226950
:1018E00021F4604141EAC201C8F800100020FFF76E
:1018F00063FD002088E700002E2E5C2E2E5C4472D3
:1019000069766572735C53544D3332463478785F30
:1019100048414C5F4472697665725C5372635C73D4
:10192000746D3332663478785F68616C5F726363BC
:101930002E630000003C02400038024010B500F069
:1019400043F808490968F02292FAA2F201F0F00186
:10195000B2FA82F2D140044A515CC840034908609F
:1019600010BD0000083802400E6800088C030020FB
:1019700010B5FFF7E3FF074909684FF4E05292FA08
:10198000A2F201F4E051B2FA82F2D140024A515C73
:10199000C84010BD083802400E68000810B5FFF7B7
:1019A000CDFF074909684FF4604292FAA2F201F4B0
:1019B0006041B2FA82F2D140024A515CC84010BD87
:1019C000083802400E68000830B51948006810F069
:1019D0000C01184812D0441004290ED008290DD14A
:1019E000134A121F1168136801F03F015D0247F6A8
:1019F000C07304D5B4FBF1F003E0204630BDB0FB6A
:101A0000F1F01168194093FAA3F3B3FA83F3D940C4
:101A1000484311684FF4403292FAA2F201F4403187
:101A2000B2FA82F2D140491C4900B0FBF1F030BD5E
:101A3000083802400024F4002DE9F84F04460068FD
:101A40000F2804D94FF48071EDA004F05FFB2078DB
:101A5000DFF8E8A3FA4DC0074FF0000654D06068E5
:101A600040B1012806D0052804D040F20511E4A0B9
:101A700004F04CFBDAF800105046C1F38101012953
:101A800009D00068C0F3810002280BD1EB48001F89
:101A90000068400206D52868800335D560680028B4
:101AA0007ED031E0DFF8989309F1020989F80060EF
:101AB000FFF75AFC074641F2883804E0FFF754FC70
:101AC000C11B41456DD828688003F7D4207989F877
:101AD0000000606860B1FFF747FC074604E0FFF7CD
:101AE00043FCC11B4145EDD828688003F7D50BE0C6
:101AF000FFF73AFC074604E0FFF736FCC11B4145FF
:101B0000E0D828688003F7D42078DFF8389380077E
:101B100056D5E06830B1012804D04FF4A371B8A0C5
:101B200004F0F4FA20691F2804D940F24711B4A048
:101B300004F0ECFADAF80010504611F00C0F4FF0F8
:101B4000F80809D00068C0F3810002280BD1BB4817
:101B5000001F0068400206D42868800714D5E0689A
:101B600001281DD110E0E068E0B10120C9F80000B3
:101B7000FFF7FAFB074604E0FFF7F6FBC01B6428FB
:101B8000A0D828688007F7D5286898FAA8F220F02E
:101B9000F8012069B2FA82F29040014329600FE017
:101BA00023E163E1C9F80060FFF7DEFB074604E0CC
:101BB000FFF7DAFBC01B642884D828688007F7D4B5
:101BC000207800072DD5DFF874829F4F606908F1F7
:101BD0006C08C0B1012806D040F2871188A004F03B
:101BE00095FA606978B101203860FFF7BDFB0746C0
:101BF00004E0FFF7B9FBC01B6428C1D8D8F8000087
:101C00008007F6D50DE03E60FFF7AEFB074604E027
:101C1000FFF7AAFBC01B6428B2D8D8F800008007E1
:101C2000F6D4207840075ED5A06840B1012806D0E0
:101C3000052804D040F2B11171A004F067FA7F4882
:101C40003830016841F0805101600068DFF8FC81A4
:101C500000F080500090D8F8001041F48071C8F86E
:101C60000010FFF781FB074604E0FFF77DFBC01B78
:101C7000642885D8D8F80000C005F6D5DFF8BCB1D7
:101C80000BF1680B8BF80060FFF76EFB074641F223
:101C9000883804E0FFF768FBC11B41458CD8DBF8AE
:101CA00000008007F6D4217A8BF80010A06868B194
:101CB000FFF75AFB074604E0FFF756FBC11B4145FF
:101CC0009BD8DBF800008007F6D50CE0FFF74CFB53
:101CD000074604E0FFF748FBC11B41458DD8DBF800
:101CE00000008007F6D4A06900287DD0012809D023
:101CF000022807D040F2F51141A004F007FAA069CC
:101D00000028F2D0DAF80000C0F3810002286CD07D
:101D1000A069022805D0C9F86060FFF725FB0446DA
:101D2000A7E0E06938B1B0F5800F04D04FF4FF713F
:101D300033A004F0EBF9206A3F2804D940F2FF11E8
:101D40002FA004F0E3F9606AC038F02804D94FF4FA
:101D500000712BA004F0DAF9A06A02280AD0042846
:101D600008D0062806D0082804D040F2012124A07B
:101D700004F0CCF9E06A001F0B2804D940F20221DC
:101D80001FA004F0C3F94F46C9F86060FFF7ECFAF2
:101D9000064604E0FFF7E8FA801B642866D8286846
:101DA0008001F7D4D4E90701084347F6C07292FADC
:101DB000A2F2616AB2FA82F29140A26A4FF0FF3356
:101DC00003EB52024FF4403393FAA3F3B3FA83F3D5
:101DD0009A40114308434FF0706292FAA2F2E16A0E
:101DE000B2FA82F2914001E046E047E0084313492D
:101DF000091F086001203866FFF7B6FA04462CE098
:101E00002E2E5C2E2E5C447269766572735C535480
:101E10004D3332463478785F48414C5F447269767E
:101E200065725C5372635C73746D333266347878B8
:101E30005F68616C5F7263632E6300000838024064
:101E40000038024000004742800E474200700040C8
:101E5000FFF78AFA001B642808D828688001F7D5A4
:101E60000AE0FFF781FA001B642802D90320BDE8CD
:101E7000F88F28688001F4D40020F8E70120F6E705
:101E800070B5040076D0606830B1B0F5827F03D0C1
:101E9000B82155A004F03AF9A06848B1B0F5806FB8
:101EA00006D0B0F5004F03D0B9214FA004F02EF9B1
:101EB000E068B0F5006F04D018B1BA214AA004F070
:101EC00025F9206928B1022803D0BB2146A004F0DF
:101ED0001DF9606928B1012803D0BC2142A004F09B
:101EE00015F9A069B0F5007F07D030B1B0F5802FAB
:101EF00003D0BD213CA004F009F9E06988B10828AD
:101F00000FD010280DD018280BD0202809D0282851
:101F100007D0302805D0382803D0BE2132A004F0E5
:101F2000F5F8206A28B1802803D0BF212EA004F044
:101F3000EDF8606A28B1102803D0C0212AA004F06F
:101F4000E5F8A06A30B1B0F5005F03D0C12126A04A
:101F500004F0DCF8E06A4FF6FE71401E884203D9B7
:101F6000C22121A004F0D2F894F85100002518B144
:101F700007E0FFE7012070BD84F85050204600F0D4
:101F800051F8022084F851002068016821F04001D6
:101F90000160D4E901010843D4E903121143084365
:101FA00061690843218B01F400710843E16908432A
:101FB000216A0843A16A084321680860A0690421D6
:101FC00001EA1040616A0843216848602168E06ABC
:101FD00008612068C16921F40061C1616565012063
:101FE00084F85100002070BD2E2E5C2E2E5C4472B1
:101FF00069766572735C53544D3332463478785F3A
:1020000048414C5F4472697665725C5372635C73DD
:10201000746D3332663478785F68616C5F737069B1
:102020002E6300002DE9F041294A01680024294867
:10203000022503260527DFF8A08086B0914225D12E
:10204000016841F001010160016801F001010591A1
:10205000016841F002010160006800F00200059093
:102060001C481430016841F480510160006802AAE4
:1020700000F480500590C020CDE9000582E8D00032
:1020800069461648FEF7AEFF082015E0144A914253
:102090001BD1016841F002010160006800F00200FC
:1020A00005900C481030016841F4804101600068DF
:1020B00000F4804005909000CDE9000502AA694631
:1020C00082E8D0004046FEF78DFF06B0BDE8F08103
:1020D000003001403038024000040240000002405D
:1020E000003800402DE9F84F044690F85100DDF823
:1020F00028A01D4617468846012801D0222872D103
:10210000B8F1000F15D0A7B19DB1A06820B14FF470
:102110002671A5A003F0FAFF94F85000012862D0C0
:102120004FF0010984F8509094F85100012803D031
:1021300005E00120BDE8F88F322084F85100002628
:102140006665A763A587E587C4F83080A586E58620
:10215000A664E664A06A4FF40055A84209D120683D
:10216000016821F4005101602068016841F40051C8
:10217000016020680168490603D4016841F040010C
:102180000160E0684FF48271B0F5006F606807D0BD
:10219000002866D088426DD1E08E012861D069E0C8
:1021A00020B188420CD1E08E012809D1206B216832
:1021B0000088C860206B801C2063E08E401EE08693
:1021C000E08E88B9A06AA84243D12068016841F432
:1021D000805101603DE02068C068A16B0880A06B61
:1021E000801CA0639DE0DDE05346002202212046D2
:1021F00001F00AFD002871D1206B21680088C860B9
:10220000206B801C2063E08E401E0004000CE086E2
:1022100007D1A06AA84204D12068016841F4805126
:102220000160534600220121204601F0EDFC002808
:102230006FD12068C068A16B0880A06B801CA06370
:10224000E08F401EE087E08E0028CDD16068002836
:102250006AD1534600220121204601F0D5FCE8BB9B
:10226000B9E7206B411C216321680078C860E08ECB
:10227000401EE086E08E98B9A06AA84204D120688A
:10228000016841F48051016053460022012120463B
:1022900001F0BAFC10BB2068C068A16B087040E078
:1022A000534600220221204601F0AEFCB0B9206B5B
:1022B000411C216321680078C860E08E401E000444
:1022C000000CE08607D1A06AA84204D1206801680A
:1022D00041F4805101605346002200E019E00121E1
:1022E000204601F091FCA0B92068C168A06B421C97
:1022F000A2630170E08F401EE087E08E0028CFD1FE
:10230000606888B9534600220121204601F07CFC18
:1023100008B103200EE72068C168A06B421CA263CD
:102320000170E08F401EE087A06AA84210D153469A
:1023300000220121204601F067FC18B1606D40F0D9
:1023400002000FE02068C068ADF80000BDF8000092
:10235000534601228021204601F056FC20B1606DD9
:1023600040F020006065D4E784F8519020688168CF
:10237000A26AC1F30011AA4210D179B1616D41F096
:1023800002016165016821F4005101602068016863
:1023900041F40051016084F85060CAE684F850604E
:1023A0000020C7E60220C5E62E2E5C2E2E5C44726D
:1023B00069766572735C53544D3332463478785F76
:1023C00048414C5F4472697665725C5372635C731A
:1023D000746D3332663478785F68616C5F737069EE
:1023E0002E630000704710B5401EB0F1807F01D30E
:1023F000012010BD4FF0E02460610F21601701F053
:1024000084FB0020A06107202061002010BD10B5D2
:10241000FFF7E8FF10BD704738B50168044608684B
:10242000CA68C0F3000002F4807238B132B10868A3
:1024300048680090E06B40F00100E06308684A697A
:10244000C0F3400002F0010238B132B108684868B8
:102450000090E06B40F00400E0630868C0F3800285
:10246000486900F001003AB130B10868486800904E
:10247000E06B40F00200E06308684A69C0F3C00006
:1024800002F0010238B132B1086848680090E06B90
:1024900040F00800E0630868C968C0F3401001F02C
:1024A000200118B111B1204601F0F4FC2068016848
:1024B000C068C1F3C01100F0800019B110B120460E
:1024C00001F042FE21680868CA68C0F3801002F07B
:1024D00040020125B8B1B2B1CA68204622F04002DC
:1024E000CA6094F83910322916D00168CA6822F4FB
:1024F0008072CA6001684A6922F001024A6180F86C
:10250000395000F03AF9E06B002804D084F83950D3
:102510002046FFF780FF38BD222180F83910F0E710
:1025200070B504001ED0A069334A00283349344BEB
:10253000206819D0904209D0884207D0984205D02F
:10254000FC2130A003F0E2FDA069C0B1A069B0F5A4
:10255000807F14D0B0F5007F11D0B0F5407F0ED051
:10256000FD2109E0012070BD904208D0884206D0CC
:10257000984204D040F2011122A003F0C7FDA068E8
:1025800038B1B0F5805F04D040F203111DA003F014
:10259000BDFDE06938B1B0F5004F04D04FF4827151
:1025A00018A003F0B3FD94F83900002520B984F891
:1025B0003850204600F044F8022084F839002068A2
:1025C000C16821F40051C160204601F0B7FC2068C9
:1025D000016921F4904101612068416921F02A01DB
:1025E00041612068C16841F40051C160E563012088
:1025F00084F83900002070BD001001400044004004
:10260000001401402E2E5C2E2E5C44726976657299
:10261000735C53544D3332463478785F48414C5F95
:102620004472697665725C5372635C73746D3332A5
:10263000663478785F68616C5F756172742E6300D0
:1026400000B50068174987B0884228D1164801684C
:1026500041F001010160006800F00100059012489E
:102660001030016841F4003101600068694600F4EF
:10267000003005900C200090022001900020029074
:1026800003200390072004900848FEF7ABFC0022CB
:1026900011462620FEF710FF2620FEF7DBFE07B0CE
:1026A00000BD0000004400403038024000000240FD
:1026B00070472DE9F047044690F8390099460D46D9
:1026C000012801D0222856D125B31AB394F8380036
:1026D000012850D0012684F838600027E76394F879
:1026E0003900222819D0122084F83900A284E2840B
:1026F0004FF48058E08C4B46401EE084A0684FF0B9
:10270000000240454FF08001204613D101F04FFDFB
:1027100008BB04E00120BDE8F0873220E4E7288808
:102720002168C0F308004860206908B16D1C08E00A
:10273000AD1C06E001F03BFD68B9216815F8010BFE
:102740004860E08C0028D5D14B460022402120462D
:1027500001F02DFD08B10320DDE794F8390032289F
:1027600005D084F8396084F838700020D3E722203F
:1027700084F83900F7E70220CDE770472DE9FC5FC8
:10278000FEF700FEFE4D286840F001002860286832
:10279000FC4C00F0010000904FF480790026C4E961
:1027A0000096DFF8E483022721464046C4E9026729
:1027B000FEF718FC286840F00100286028684FF4F4
:1027C000007B00F001000090C4E900B621464046BD
:1027D000C4E90267FEF706FC286840F001002860A3
:1027E0002868214600F0010000900420C4E900069A
:1027F0004046C4E90267FEF7F5FB286840F0010097
:10280000286028684FF4806A00F001000090C4E955
:1028100000A6C4E9026721464046FEF7E3FB00201C
:10282000FEF748FB01900120FEF744FB00900220D8
:10283000FEF740FB0746FEF75DFB064600252846EF
:10284000FEF738FBFEF764F8044605EB450000EBA5
:10285000C500616806EB001088476D1CEDB2032DC2
:10286000EDD3002000F082FC0146A068426B019885
:102870009047012000F07AFC0146A068426B019865
:102880009047002000F072FC0146A068426B00985F
:102890009047012000F06AFC0146A068426B009856
:1028A0009047002000F062FC0146A068426B384669
:1028B0009047012000F05AFC0146A068426B384660
:1028C0009047002000F052FC0146A068C26A0198BF
:1028D0009047002000F04AFC0146A06840F6A66739
:1028E0003B46856800220198A8475546464629463A
:1028F0003046FEF7D7FC0028F9D0002000F036FC67
:102900000146A068826B01989047002000F02EFCE1
:102910000146A0683B460122D0F808C00198E04774
:1029200029463046FEF7BEFC0028F9D100F01EFC17
:102930000146A068826B01989047002000F016FCC9
:102940000146A068C26A01989047002000F00EFC82
:102950000146A06847F2C263012205690198A847B1
:10296000002000F003FC0146A068C26A009890476E
:10297000002000F0FBFB0146A06847F230584346B8
:10298000856800220098A8475D4629463046FEF734
:1029900089FC0028F9D0002000F0E8FB0146A0687F
:1029A000826B00989047002000F0E0FB0146A06891
:1029B0004346012287680098B84729463046FEF70B
:1029C00071FC0028F9D100F0D1FB0146A068826BB0
:1029D00000989047002000F0C9FB0146A068C26A39
:1029E000009890479FED690A01F00EFDBCEEC00A09
:1029F000002010EE105A00F0B9FB0146A0682B46EB
:102A0000012207690098B847002000F0AFFB01469B
:102A1000A0680122836C009898470028F4D0012018
:102A200000F0A4FB0146A068C26A0098904701200C
:102A300000F09CFB0146A06847464346856801229A
:102A40000098A84704213046FEF72CFC0028F9D056
:102A5000012000F08BFB0146A068826B0098904734
:102A6000012000F083FB0146A0683B4600228568F8
:102A70000098A84704213046FEF714FC0028F9D13D
:102A8000012000F073FB0146A068826B009890471C
:102A9000012000F06BFB0146A068C26A00989047D5
:102AA000B7EE000A01F0B0FCBCEEC00A012010EE47
:102AB000105A00F05BFB0146A0682B460022D0F8BC
:102AC00010C00098E047012000F050FB0146A068CC
:102AD0000122836C009898470028F4D0012000F070
:102AE00045FB0146A068426B00989047002000F02B
:102AF0003DFB0146A0680122836C0098984700289E
:102B0000F4D0012000F032FB0146A068C26A0198AF
:102B10009047012000F02AFB0146A0683B460022B6
:102B200085680198A8474D4629463046FEF7BAFB0E
:102B30000028F9D0012000F019FB0146A068826B43
:102B400001989047012000F011FB0146A0683B4628
:102B50000122D0F808C00198E04729463046FEF728
:102B6000A1FB0028F9D1012000F000FB0146A0687C
:102B7000826B01989047012000F0F8FA014607E0C7
:102B800030380240BC050020000002409A99993F6D
:102B9000A068C26A019890479FED1A0A00F036F8C3
:102BA000BCEEC00A012010EE105A00F0DFFA014618
:102BB000A0682B46012206690198B047012000F069
:102BC000D5FA0146A0680122836C01989847002835
:102BD000F4D09FED0D0A01F017FCBCEEC00A0120F5
:102BE00010EE105A00F0C2FA0146A0682B460122EE
:102BF0000469009802B0A446BDE8F04F5DF804EB0C
:102C000060470000022BB73F3333333FDFED020A4A
:102C100020EE200A704700008093DA4770B50D4619
:102C20000024182100F09AF91E4980B20F2D49683E
:102C3000088034D2DFE805F0080B0E1114171A1DB6
:102C4000202326292C2F320000F0010427E0C0F3B6
:102C5000400424E0C0F3800421E0C0F3C0041EE07F
:102C6000C0F300141BE0C0F3411418E0C0F3C0141B
:102C700015E0C0F3002412E0C0F340240FE0C0F3DD
:102C800080240CE0C0F3C02409E0C0F3003406E067
:102C9000C0F3403403E0C0F3803400E0C40B2046AE
:102CA00070BD00009400002010B5044691ED050AA7
:102CB00001F1380200F0F8FFA08312ED080A01F0DC
:102CC00009F8E08312ED070A01F04AF8208412EDBA
:102CD000060A01F05BF8608412ED050A01F010F8B5
:102CE000A08452ED040A9FED730A12ED0E1A60EEF5
:102CF000800AC0EE811AFCEEE10A10EE900A84F818
:102D0000260052ED030A12ED0E1A60EE800AC0EEA4
:102D1000811AFCEEE10A10EE900A84F8270052EDC9
:102D2000020A12ED0E1A60EE800AC0EE811AFCEE65
:102D3000E10A10EE900A84F8280052ED010A20EE14
:102D4000800A52ED0E0A80EE201ABCEEC10A10EE87
:102D5000100A84F8290092ED000A00F0EBFF60856C
:102D600092ED010A03F078FB84F82C0092ED020A40
:102D700003F046FB84F82D0092ED030A03F056FBA6
:102D800084F82E00107C84F82F0092ED050A03F0E1
:102D90000BFA84F8310092ED060A03F029FA84F860
:102DA0003200107F84F83300507F84F83400D08BD9
:102DB000E086A168A28B20780B6804219847A1685F
:102DC000E28B20780B6805219847A168228C207837
:102DD0000B6806219847A168628C20780B68072150
:102DE0009847A168A28C20780B6808219847A168B1
:102DF00094F8262020780B6809219847A16894F858
:102E0000272020780B680A219847A16894F8282089
:102E100020780B680B219847A16894F82920207826
:102E20000B680C219847A168628D20780B680D21F2
:102E30009847A16894F82C2020780B680E219847B9
:102E4000A16894F82D2020780B680F219847A1687D
:102E500094F82E2020780B6810219847A16894F8E8
:102E60002F2020780B6811219847A16894F8312011
:102E700020780B6813219847A16894F832202078B5
:102E80000B6814219847A16894F8332020780B68C8
:102E900015219847A16894F8342020780B681621F2
:102EA0009847A168E28E20780B68BDE81040172192
:102EB00018470000000080432DE9F84F0D460646F4
:102EC00000211648164F0C46017089464FF00A0A39
:102ED0008046398900227868FEF710FA05EB440233
:102EE00006EB440102230F48CDF800A0FFF7FAF8E3
:102EF000398901227868FEF701FA4846414688F888
:102F0000019000BFC0B2401CC0B248701428F8D372
:102F1000641CE4B2042CDCD3BDE8F88F94000020DC
:102F2000B40300200404002070B5054600200123EE
:102F300001EB4304D61A645DF600B4405B1C2043E9
:102F4000DBB2032BF4D970BD30B501EB0010DDE925
:102F5000034500F8042B80E8380030BD7CB5002222
:102F60000C4600920B460192054602220C4900F0E5
:102F70002DF90C490A4800F045F90A490948083179
:102F8000FFF79AFF084904EB840001EB8000054934
:102F9000827B02B02846BDE870400831FFF7C4BF0D
:102FA000940300209C000020F4640008192806D235
:102FB000044900EB800001EB8000401C704702A038
:102FC00070470000F4640008000000001CB50021F8
:102FD00000910B460191044612220A4900F0F6F8CE
:102FE0000949084800F00EF9074907480831FFF77A
:102FF00063FF0549022208312046FFF795FF80B2A2
:103000001CBD0000940300209C0000201CB5002182
:1030100000910B4601910A22064900F0D7F80649B3
:10302000044800F0EFF8BDE81C40034902480831AD
:10303000FFF742BF940300209C0000201CB5002134
:1030400000910B4601910B22064900F0BFF806499A
:10305000044800F0D7F8BDE81C4003490248083195
:10306000FFF72ABF940300209C0000201CB5B1F597
:10307000800F12D2002200920B46019206220749CD
:1030800000F0A4F80649054800F0BCF8BDE81C4073
:10309000034903480831FFF70FBF1CBD940300200C
:1030A0009C0000201CB5B2F5800F12D20024CDE99F
:1030B00000240B460722074900F088F80649054816
:1030C00000F0A0F8BDE81C40034903480831FFF7B1
:1030D000F3BE1CBD940300209C0000201CB5CDE96C
:1030E00000230B460822074900F070F806490548FE
:1030F00000F088F8BDE81C40034903480831FFF799
:10310000DBBE0000940300209C0000201CB50021C1
:1031100000910B4601911122064900F057F806492B
:10312000044800F06FF8BDE81C400349024808312C
:10313000FFF7C2BE940300209C0000201CB50021B4
:1031400000910B4601910F22064900F03FF8064915
:10315000044800F057F8BDE81C4003490248083114
:10316000FFF7AABE940300209C000020002802D094
:10317000012800D0FF2070471CB50024CDE90024B1
:103180000B460522064900F021F80649044800F0E4
:1031900039F8BDE81C40034902480831FFF78CBEEE
:1031A000940300209C00002010B50649064800F05A
:1031B00029F8044903480831FFF77EFE014808302A
:1031C00010BD00009C000020940300202DE9FC436A
:1031D00081460B480E46DDE9095401781F469046AA
:1031E00021B901210170304600F0D8F9CDE9005431
:1031F0003B46424631464846FFF7A6FEBDE8FC8303
:10320000940000202DE9F04F002282461346144618
:1032100000208C54521C401CC0B2D2B20228F8D3F9
:103220005B1CDBB2042BF3D3DFF88CB10020ABF5D1
:10323000FA7505F2FE2404F112090AEB0012137864
:10324000C3EBC3060BEB46031B7B0B5416780A2E0D
:1032500026D2DFE806F09B05262C41465B697EA25C
:10326000566806EB860615F8266033430B54536800
:1032700003EB830305EB83039E7B012306F1010C23
:103280000CE0A6EB030897684FEAC80827FA08F78E
:1032900000EB43085B1C01F80870DBB26345F0D318
:1032A00074E0526802EB820215F8222016E056689C
:1032B00006EBC6062644367A33430B540123C3F18A
:1032C00003079668FF00FE4000EB43075B1CDBB280
:1032D000CE55042BF3D359E0526868E013430B54E6
:1032E00054E0566806EBC6062644367A33430B5440
:1032F0000123C3F103079668FF00FE4000EB43077C
:103300005B1CDBB2CE55042BF3D33FE00123C3F1AA
:1033100003075668FF00FE4000EB43075B1CDBB26F
:10332000CE55042BF3D331E0566806EBC60626448F
:10333000367A33430B540123C3F103079668FF0029
:10334000FE4000EB43075B1CDBB2CE55042BF3D3EE
:103350001CE0566806EB860707EB0906367943EA58
:10336000C6030B54966806EBC6062644367A3343EA
:103370000B540123C3F10307D668FF00FE4000EBA6
:1033800043075B1CDBB2CE55042BF3D3401CC0B209
:103390000228FFF452AFBDE8F08F566806EB8607AF
:1033A00007EB0906367943EAC6030B54926802EB31
:1033B000C2022244127A91E7E86600080CB50022A6
:1033C00000920B46019202220149FFF7FFFE0CBD5D
:1033D000940300200CB5002100910B4601911222AC
:1033E0000149FFF7F3FE0CBD940300200CB500214A
:1033F00000910B4601910A220149FFF7E7FE0CBD3F
:10340000940300200CB5002100910B4601910B2282
:103410000149FFF7DBFE0CBD940300200CB5002230
:1034200000920B46019206220149FFF7CFFE0CBD28
:10343000940300201CB50024CDE900240B4607228C
:103440000149FFF7C3FE1CBD940300200CB5CDE974
:1034500000230B4608220249FFF7B8FE0CBD00000E
:10346000940300200CB5002100910B46019111221C
:103470000149FFF7ABFE0CBD940300200CB5002101
:1034800000910B4601910F220149FFF79FFE0CBDF1
:10349000940300201CB50024CDE900240B4605222E
:1034A0000149FFF793FE1CBD940300201CB50024C6
:1034B000CDE900240B4609220149FFF787FE1CBD18
:1034C000940300200CB5002100910B4601910D22C0
:1034D0000149FFF77BFE0CBD940300200CB50021D1
:1034E00000910B4601910C220149FFF76FFE0CBDC4
:1034F000940300201CB50024CDE900240B460322D0
:103500000149FFF763FE1CBD940300201CB5002495
:10351000CDE900240B4601220149FFF757FE1CBDEF
:10352000940300200CB5002100910B46019110225C
:103530000149FFF74BFE0CBD940300200CB50021A0
:1035400000910B4601910E220149FFF73FFE0CBD91
:10355000940300200CB5002200920B460192042235
:103560000149FFF733FE0CBD940300201CB5002475
:10357000CDE900240B4609220649FFF727FE06493C
:103580000448FFF73FFEBDE81C40034902480831EC
:10359000FFF792BC940300209C00002000210B4602
:1035A00000EB0112491C137053609360C9B2D360E1
:1035B0000229F5D3704700001CB5002100910B468D
:1035C00001910D220649FFF701FE06490448FFF765
:1035D00019FEBDE81C40034902480831FFF76CBCE6
:1035E000940300209C0000201CB5002100910B4694
:1035F00001910C220649FFF7E9FD06490448FFF74F
:1036000001FEBDE81C40034902480831FFF754BCE5
:10361000940300209C0000201CB50024CDE9002468
:103620000B4603220649FFF7D1FD06490448FFF780
:10363000E9FDBDE81C40034902480831FFF73CBCE6
:10364000940300209C0000201CB50024CDE9002438
:103650000B4601220649FFF7B9FD06490448FFF76A
:10366000D1FDBDE81C40034902480831FFF724BCE6
:10367000940300209C0000201CB5002100910B4603
:10368000019110220649FFF7A1FD06490448FFF702
:10369000B9FDBDE81C40034902480831FFF70CBCE6
:1036A000940300209C0000201CB5002100910B46D3
:1036B00001910E220649FFF789FD06490448FFF7EC
:1036C000A1FDBDE81C40034902480831FFF7F4BBE7
:1036D000940300209C0000201CB5002200920B46A1
:1036E000019204220649FFF771FD06490448FFF7DD
:1036F00089FDBDE81C40034902480831FFF7DCBBE7
:10370000940300209C00002010B5204C1E4802218C
:1037100020604FF4827060600020A060C4E9030163
:1037200001216161206249026062A161A062FEF72D
:1037300035F91749B0FBF1F080B2022801D2002020
:103740001AE0042801D2082016E0082801D210202F
:1037500012E0102801D218200EE0202801D22020EB
:103760000AE0402801D2282006E0802801D230203B
:1037700002E0FF2806D83820E061BDE81040034889
:10378000FEF77EBBFEE7000000300140040400208D
:10379000404B4C000848074901604FF4E13141605B
:1037A000002181600C22C160C0E904128161C16105
:1037B000FEF7B6BE00440040C004002070B512A160
:1037C000194800F015FE00F081FDFDF793FB05465A
:1037D00000242046FDF76EFBFDF79AF804EB440148
:1037E00001EBC40105EB0111426808469047641CD7
:1037F000E4B2032CEDD30DA10B4800F0F9FDBDE8B8
:10380000704000F063BD0000496E697469616C200E
:1038100076616C75657320666F7220726567697377
:10382000746572733A0A0D00C00400204375737406
:103830006F6D2076616C75657320666F722072659E
:10384000676973746572733A0A0D00002DE9F047D9
:103850002DED088BB0EE438AB0EE629AF0EE429AFC
:10386000B0EE61BAF0EE418AB0EE60AAF0EE40AA86
:10387000FDF788FD0020FDF71DFB80460120FDF7C8
:1038800019FB81460220FDF715FB0746FDF732FBC9
:10389000064600252846FDF70DFBFDF739F80446DE
:1038A00005EB450000EBC500616806EB001088479A
:1038B0006D1CEDB2032DEDD3B5EEC08A4FF00000C4
:1038C000F1EE10FA0CD2FFF751FCB1EE480A0146B6
:1038D000A068BCEEC00A0022056910EE103A09E0AB
:1038E000FFF744FC0146BCEEC80AA068012210EEB6
:1038F000103A05693846A8470020FFF737FC014613
:10390000A0680122836C384698470028F4D0F0EE76
:10391000690AB0EE4B0AFDF739FAB0EE408AF0EED4
:103920004A0AB0EE6A0AFDF731FA38EE408A4FF0E3
:103930000000B5EEC08AF1EE10FA0CD2FFF716FCCB
:10394000B1EE480A0146A068BCEEC00A0022056933
:1039500010EE103A09E0FFF709FC0146BCEEC80A78
:10396000A068012210EE103A05694046A8470020E1
:10397000FFF7FCFB0146A0680122836C4046984794
:103980000028F4D0F0EE690AB0EE4B0A02F0C0FB5A
:10399000F0EE490A00F0CAF8B0EE408AF0EE690A8B
:1039A000B0EE4B0A02F0B4FBB0EE481AF0EE490A52
:1039B000FDF726FAF0EE40BAF0EE4A0AB0EE6A0AD7
:1039C00002F0A6FBF0EE680A00F0B0F8B0EE408A14
:1039D000F0EE4A0AB0EE6A0A02F09AFBB0EE481A1C
:1039E000F0EE680AFDF70CFA3BEEC08AF0EE690AC9
:1039F000B0EE4B0A02F08CFBF0EE490A00F096F8AC
:103A0000B0EE409AF0EE4A0AB0EE6A0A02F080FB8D
:103A1000F0EE680A00F08AF830EE080AB5EEC08AC7
:103A200079EE408AF1EE10FAB0EE480A10D2FFF7B4
:103A3000EDF8B1EE400A0120BCEEC00A10EE105ABB
:103A4000FFF794FB0146A0682B46002206690DE0B3
:103A5000FFF7DCF8BCEEC00A012010EE105AFFF7A9
:103A600085FB0146A0682B46012206694046B04707
:103A70000120FFF77BFB0146A0680122836C4046D2
:103A800098470028F4D0F5EEC08AF1EE10FAB0EEB7
:103A9000680A10D200F0B8FCB1EE400A0020BCEE7B
:103AA000C00A10EE105AFFF761FB0146A0682B46D2
:103AB000002206690DE000F0A7FCBCEEC00A002061
:103AC00010EE105AFFF752FB0146A0682B46012268
:103AD00006694846B0470020FFF748FB0146A0684A
:103AE0000122836C484698470028F4D0BDEC088B2F
:103AF000BDE8F08710B5FDF745FC00F065F9FFF76C
:103B000003FEBDE81040FFF745BE0907090E002877
:103B100006DA00F00F0000F1E02080F8141D704775
:103B200000F1E02080F800147047000010B52DED82
:103B30000A8BB0EE608AB0EE40CA9FED2BBB9FEDC2
:103B40002C0BB0EE4B1AF0EE6B1A00F0F9FFB0EE52
:103B500040AAF0EE60AAB0EE4B1AF0EE6B1A9FEDA1
:103B6000260B00F0EDFFB0EE409AF0EE609A18EEF2
:103B7000100AFCF7C0FC41EC100BB0EE4B1AF0EE53
:103B80006B1A00F0DDFFB0EE408AF0EE608A1CEEAA
:103B9000100AFCF7B0FC41EC100BB0EE4B1AF0EE43
:103BA0006B1A00F0CDFF53EC182B51EC100BFCF707
:103BB0000DFB53EC192BFCF7AAFB53EC1A2BFCF76B
:103BC000A6FB9FED0F1B53EC112BFCF718FC41ECEF
:103BD000100B00F039FC51EC100BFCF79FFCBDEC16
:103BE0000A8B00EE100A10BD00000000000000402B
:103BF00000000000000069400000000000C07240AA
:103C000000000000004CFD402DE9F0471D469046A5
:103C10000F460446FDF7A8FB06465FEA08004FF092
:103C200000084FF4005A4FF0010926D034E0681C18
:103C300023D025B1FDF798FB801BA8421DD9206831
:103C4000416821F0E00141602068016821F04001F5
:103C50000160A06A504509D12068016821F4005133
:103C600001602068016841F40051016084F85190BE
:103C700084F850800320BDE8F0872068806837EA28
:103C80000000D4D10DE0681C06D0002DD7D0FDF780
:103C90006BFB801BA842D2D82068806837EA0000FE
:103CA000F1D00020E7E7000010EE100A0749884233
:103CB00009DCDFED070A80EE201ABCEEC10A10EE27
:103CC000100A80B2704700207047000071C6684734
:103CD000FED4684110EE100A0749884209DCDFED86
:103CE000070A80EE201ABCEEC10A10EE100A80B25C
:103CF000704700207047000071C66847FED46841D5
:103D000010EE100A094988420DDCDFED090A80EE49
:103D1000201AB6EE000A31EE400ABCEEC00A10EEE0
:103D2000100A80B2704700207047000080E173469F
:103D30000000744110EE100A0749884209DCDFEDEB
:103D4000070A80EE201ABCEEC10A10EE100A80B2FB
:103D5000704700207047000023207444F423743D12
:103D600010EE100A0749884209DCDFED070A80EEF1
:103D7000201ABCEEC10A10EE100A80B27047002073
:103D80007047000002E773460B24744110EE100ADE
:103D90000749884209DCDFED070A80EE201ABCEEF5
:103DA000C10A10EE100A80B2704700207047000070
:103DB000BF1474440124743E10B5FDF7DBFABDE86E
:103DC0001040FEF724BB000030B51B4893B00168DB
:103DD00041F080510160006800F080501190174858
:103DE000016821F4404141F400410160006802246F
:103DF00000F4404011900120039010200094002511
:103E000006940490CDE907504FF4A870099004205F
:103E10000A9007200B906846FDF70EFE0CA90520BE
:103E200081E83100E002CDE90F0502210CA8FDF781
:103E3000D5FB13B030BD0000403802400070004098
:103E40001048016841F4700101600F48016841F0B9
:103E5000010101600C4A00210832116002680B4B1D
:103E60001A400260031D0A4A1A60026822F4802286
:103E7000026005480C30016002495806803908602C
:103E80007047000088ED00E000380240FFFFF6FEBA
:103E90001030002410B590F83910222903D03229AF
:103EA00001D0022010BD8168B1F5805F11D0016999
:103EB000002901681FD0496801F07F03816A4A1C0C
:103EC00082620B70C18D491E0904090CC18518D08E
:103ED0002FE00269816A002A0268526805D0D2B2D6
:103EE0000A80816A491C8162ECE7C2F308020A80F9
:103EF000816A891CF7E74A68816A4B1C83620A70F1
:103F0000E0E70168CA6822F02002CA6090F8391020
:103F1000322910D00168CA6822F48072CA60016830
:103F20004A6922F001024A61012180F83910FEF746
:103F3000BFFB002010BD1221F7E700002DE9F04182
:103F4000044640686E49884204D340F236716DA041
:103F500002F0DCF8E06838B1B0F5005F04D040F260
:103F6000377168A002F0D2F8206950B1B0F5806FC7
:103F700007D0B0F5C06F04D04FF4E76161A002F044
:103F8000C5F860694FF6F371084200D120B940F2DC
:103F900039715CA002F0BAF820680169E26821F486
:103FA00040510A4302612068C26849F20C618A43A9
:103FB0002369A168E569194363692B4319431143D8
:103FC000C16020684169A26921F440710A434261DD
:103FD000E06964263225B0F5004F594A59492068F6
:103FE0001DD0884201D0904269D1FDF7D7FC00EB8B
:103FF000C00101EB00106168B0468900B0FBF1F12F
:10400000B1FBF8F6FDF7CAFC00EBC00101EB0010B4
:1040100061688900B0FBF1F7FDF7C0FC68E08842F9
:1040200001D0904219D1FDF7B9FC00EBC00101EBC2
:1040300000106168B0464900B0FBF1F1B1FBF8F641
:10404000FDF7ACFC00EBC00101EB0010616849001A
:10405000B0FBF1F7FDF7A2FC18E0FDF789FC00EBDF
:10406000C00101EB00106168B0464900B0FBF1F1FE
:10407000B1FBF8F6FDF77CFC00EBC00101EB001092
:1040800061684900B0FBF1F7FDF772FC00EBC0017D
:1040900001EB001061684900B0FBF1F1B1FBF8F0F1
:1040A0006FF01801484307EB800005EB0011B1FBEE
:1040B000F8F0216866F31F108860BDE8F081FDF715
:1040C00057FC00EBC00101EB00106168B0468900AD
:1040D000B0FBF1F1B1FBF8F6FDF74AFC00EBC001D3
:1040E00001EB001061688900B0FBF1F7FDF740FCBF
:1040F00000EBC00101EB001061688900CCE7000013
:10410000A137A0002E2E5C2E2E5C4472697665725B
:10411000735C53544D3332463478785F48414C5F7A
:104120004472697665725C5372635C73746D33328A
:10413000663478785F68616C5F756172742E6300B5
:10414000001401400010014090F83910122903D0EA
:10415000322901D0022070478168B1F5805F016A81
:104160000BD04A1C0262026809785160C18C491E5A
:104170000904090CC1840ED017E009880268C1F354
:104180000801516001690029016A02D0491C0162DD
:10419000ECE7891CFBE70168CA6822F08002CA606C
:1041A0000068C16841F04001C160002070472DE9FE
:1041B000F0471D4690460F460446FDF7D5F80646E3
:1041C0005FEA08004FF000094FF0010808D030E026
:1041D000681C05D095B1FDF7C7F8801BA8420DD823
:1041E0002068006837EA0000F2D127E0681C20D080
:1041F00025B1FDF7B9F8801BA8421AD92068C1681B
:1042000021F08001C1602068C16821F02001C160F7
:104210002068C16821F48071C1602068416921F083
:104220000101416184F8398084F838900320BDE8A9
:10423000F0872068006837EA0000D7D00020F6E752
:1042400010B50448FEF7E8F8BDE81040014800F05A
:1042500003B80000C004002010B5044600684068A0
:10426000C1B2E08D012801D00D2923D1401CE08589
:10427000A06A0021401EA062017010A1204600F03B
:10428000B7F8206801688906FCD4C16821F02001D4
:10429000C16094F8390032280DD02068C16821F43B
:1042A0008071C1602068416921F0010141610120F4
:1042B00084F8390010BD1220FAE7000052656365EA
:1042C0006976656421200A0D0000000070B50020A9
:1042D000FCF7F0FD054611E00020FEF747FF04461D
:1042E00005E02146284600F00FF8641CE4B20120E6
:1042F000FEF73CFFA042F4D26D1CEDB20220FCF7A9
:10430000D9FDA842E8D270BD70B50D460446FCF751
:1043100025FD002846D024A1244800F069F824A1F6
:10432000224800F065F80021284602F03DF80146D9
:104330001E4800F05DF827A11C4800F059F8002144
:10434000204602F031F80146184800F051F825A146
:10435000164800F04DF8002421462846FEF7FEFDE1
:1043600006462046FEF722FE0146104800F040F8BF
:104370001EA10E4800F03CF80321304602F014F86C
:1043800001460A4800F034F807A1084800F030F868
:10439000641CE4B2192CDFD3BDE8704002A10348CD
:1043A00000F026B870BD00000A0D0000C004002017
:1043B00056616C756573206F662074686520726540
:1043C00067697374657273206F66204C36343730BA
:1043D0005F230000206F66204578704272645F237F
:1043E000000000000A0D0A0D000000003A20000045
:1043F00000228B5C521CD2B2002BFAD1521ED2B2D8
:104400000A23FEF756B90000DFED020A20EE200A6B
:10441000704700008093DA4703B401984100009888
:1044200050EAC12018BF04204A0D18BF40F0010017
:1044300040F2FF72B2EB515F08BF40F0020001286A
:1044400008BF052002B0704710B5B94A2DED020B28
:104450002DED0C8B82B00F9921F000409FEDB6CB73
:1044600090422CDBA0F140530E9AA3F17F631A43D4
:104470000FD0B349884202DC16D10E98A0B19DED51
:104480000E0B02B0BDEC0C8B02B0BDE8104001F089
:10449000E3BD0029C1BF9FEDAC0B02B0BDEC0C8B9E
:1044A00002B0C8BF10BD16E0012001F029FE02B025
:1044B000BDEC0C8B02B0BDE8104001F0E1BDA44A98
:1044C0009FEDA59B9FEDA6AB90425EDAA6499FEDBE
:1044D000A8CB814208DBB0EE4C0AF0EE6C0A02B0C9
:1044E000BDEC0C8B02B010BD9DED0E0B53EC102BF0
:1044F00051EC100BFBF711FF41EC180B9E48062105
:10450000B0EE480AF0EE680A784401F079FC53EC0A
:10451000182B51EC100BFBF700FF41EC1B0B9748DD
:10452000B0EE480AF0EE680A0421784401F068FC15
:1045300053EC182B51EC100BFBF7EFFE53EC192B3F
:10454000FBF744FE41EC100B51EC1B0B53EC102B12
:10455000FBF755FF41EC100B53EC102B9DED0E0BB0
:1045600051EC100BFBF7D9FE53EC1A2BFBF7D2FEE4
:104570009DED0E1B53EC112BFBF7CCFE53EC1C2BCB
:10458000FBF7C8FE41EC100BA9E79FED7D8B9FED7B
:104590007EBB9DED0E0B002953EC192B51EC100B3B
:1045A00052DAFBF713FE53EC182BFBF7B6FE41EC87
:1045B000180B77480621B0EE480AF0EE680A7844F6
:1045C00001F01EFC53EC182B51EC100BFBF7A5FE71
:1045D00041EC1D0B6F48B0EE480AF0EE680A04216A
:1045E000784401F00DFC53EC182B51EC100BFBF749
:1045F00094FE53EC192BFBF7E9FD41EC190B51EC40
:10460000180B01F03FFF41EC180B53EC192B51EC48
:104610001D0BFBF7F4FE53EC182BFBF77EFE53EC5F
:104620001A2BFBF774FE41EC100B51EC180B53ECFA
:10463000102BFBF7CBFD53EC1B2BFBF76EFE53EC63
:104640001C2BFBF767FE6DE0FBF764FE53EC182BA9
:10465000FBF763FE41EC180B01F014FF41EC1A0B61
:1046600000208DED00AB00909DED000B51EC1A0B7E
:1046700053EC102BFBF7AAFD9DED000B41EC1C0B3E
:1046800053EC102B51EC100BFBF747FE53EC182B9F
:10469000FBF740FE53EC1C2BFBF7B1FE41EC1C0B6F
:1046A0003D48B0EE480AF0EE680A0621784401F071
:1046B000A7FB53EC182B51EC100BFBF72EFE41EC33
:1046C0001D0B3648B0EE480AF0EE680A0421784423
:1046D00001F096FB53EC182B51EC100BFBF71DFE71
:1046E00053EC192BFBF772FD41EC100B51EC1D0B39
:1046F00053EC102BFBF783FE53EC1A2BFBF70DFE4C
:1047000053EC1C2BFBF762FD41EC100B53EC102B10
:104710009DED000B51EC100BFBF758FD53EC1B2BE0
:10472000FBF7FBFD41EC100BD9E600000000000098
:104730000000F03F00000000182D4454FB21094008
:104740000000F07F000000000000000000000000FA
:104750000000E03F00000000000000000000F03F0B
:10476000075C143326A6913C0000603C000000006A
:10477000182D4454FB21F93FD4250000E225000008
:10478000000000000000E03F0000000000000040CA
:104790001E2500002C250000302400003E240000CF
:1047A00070B59B482DED020B2DED068B079D25F076
:1047B0000044A04218DC9748844202DC0AD10698E3
:1047C00040B19DED060BBDEC068B02B0BDE870401C
:1047D00001F042BC002DCCBF9FED8F0B9FED900BE5
:1047E000BDEC068B02B070BD8F48A04215DD8F482E
:1047F000A042D8BF4FF0FF3458DD9DED060B51ECC1
:10480000100BFFF709FE042808BF01F059FC9DEDCD
:10481000060BBDEC068B02B070BD9DED060B51EC96
:10482000100B01F0B5FCCDE9060181489FED828BAC
:10483000A0423CDD8248A0421FDD00249FED82ABF8
:104840009DED060B53EC1A2B51EC100BFBF7BEFC45
:104850009DED060B41EC190B53EC1A2B51EC100B90
:10486000FBF75BFD53EC182BFBF751FD53EC192BB9
:10487000FBF7C5FDCDE9060149E09DED060B0124DE
:1048800053EC182B51EC100BFBF7A0FC9DED060B25
:1048900041EC190B53EC182B51EC100BFBF737FDC7
:1048A00053EC192BFBF7ABFDCDE906012FE068486F
:1048B000A0421FDD02249FED689B9DED060B53EC8B
:1048C000192B51EC100BFBF728FD53EC182BFBF7C1
:1048D0007DFC9DED060B41EC180B53EC192B51ECB4
:1048E000100BFBF714FD53EC182BFBF788FDCDE9FB
:1048F00006010CE09DED060B032453EC102B9FEDFD
:10490000580B51EC100BFBF77AFDCDE906019DED3C
:10491000060B53EC102B51EC100BFBF7FEFC41EC9B
:10492000180B53EC182BFBF7F8FC41EC190B4E4815
:104930000621B0EE490AF0EE690A784401F060FA07
:1049400053EC182B51EC100BFBF7E7FC41EC180B68
:104950004648B0EE490AF0EE690A0521784401F0B4
:104960004FFA53EC192B51EC100BFBF7D6FC41EC32
:10497000100B51EC180B53EC102B002C0EDAFBF73C
:1049800025FC9DED061B53EC112BFBF7C6FC9DEDA2
:10499000061B53EC112BFBF7BDFC35E0FBF716FCB7
:1049A0009DED061B53EC112BFBF7B7FC41EC100BF4
:1049B0002F48784400EBC40090ED001B51EC100B25
:1049C00053EC112BFBF7A3FC9DED061B53EC112BB5
:1049D000FBF79DFC41EC100B2648784400EBC4002B
:1049E00090ED001B51EC100B53EC112BFBF792FCDC
:1049F00041EC100B002DA2BFBDEC068B02B070BDC8
:104A000051EC100B81F0004141EC100B01E700006C
:104A1000000010440000F07F182D4454FB21F93FA2
:104A2000182D4454FB21F9BF0000DC3F0000203E5C
:104A30000000F33F00000000000000000000F03F15
:104A40000000E63F00000000000000000000004001
:104A50000080034000000000000000000000F83F5C
:104A6000000000000000F0BF5A22000010220000E9
:104A70009A2100005221000010B52F499FED2C1BF8
:104A80002DED020B84B0059820F000408842D8BF7D
:104A90009DED040B2DDD2949884209D1049840B9C8
:104AA0004FF0010001F02CFB01F0EAFA06B010BD56
:104AB00005DB9DED040B01F0CFFA06B010BD684692
:104AC0009DED040B00F0C8FE10F0030004BF9DED47
:104AD000021B9DED000B0CD001280ED09DED021B9A
:104AE0009DED000B022817D0012001F005FA06B059
:104AF00010BD01F0CDF806B010BD9DED021B9DED7F
:104B0000000B012001F0F8F951EC100B81F000418D
:104B100006B041EC100B10BD01F0BAF851EC100BCF
:104B200081F0004106B041EC100B10BD0000000008
:104B30000000000000000000FB21E93F0000F07FC2
:104B40002DE9F04D2DED040B2DED0E8B96B0DDE92A
:104B50002550279CDDF890A025F0004624F0004861
:104B6000BAF1000F14BF0121002101EB4502FC49FD
:104B700053184A1093422AD3002814BF012300235C
:104B800003EB44030B44F7498B4220D358EA00015E
:104B90009FEDF59B76D0DFF8D8B35D4503D1BAF130
:104BA000000F05D188E0BAF1000F08BF002100D046
:104BB000012101EB450111F5001F08D8002814BFA1
:104BC0000121002101EB440111F5001F0BD99DEDDE
:104BD000261B9DED240B16B0BDEC0E8B04B0BDE87A
:104BE000F04D01F043BA0027002DBCBFE1498845D4
:104BF00021DAE1498845A8BF02271CDAC3451ADC3F
:104C0000DE4901EB2851142908DDC1F1340220FAF4
:104C100002F101FA02F282420DD108E058B9C1F165
:104C2000140228FA02F101FA02F2424503D101F01E
:104C30000101C1F1020756EA0A0124D1002C22DA4F
:104C4000002D18BF022F01D0012F0AD0022001F041
:104C500057FA16B0BDEC0E8B04B0BDE8F04D01F074
:104C6000E3B9022001F04CFA01F0DEF951EC100B2F
:104C700081F0004141EC100B16B0BDEC0E8B04B07E
:104C8000BDE8F08D18E09FEDBEAB9FEDBF8B002817
:104C900071D1B848804522D105F1804010F58010CF
:104CA00008BFBAF1000F07D0B3450ADC002CA8BF3B
:104CB0009DED260BE0DA0DE0B0EE490AF0EE690A50
:104CC000DAE7002C06DA9DED260B51EC100B81F093
:104CD00000416FE0AE48784490ED000BCCE7D8453A
:104CE0004DD1002C48DA2EB186423AD1BAF1000FEC
:104CF00042D126E0BAF1000F13D0022001F000FAF1
:104D000001F0CEF98DED020B9DED240B8DED000B26
:104D100010EE900A039961F31E0003909DED020BC3
:104D2000AAE78DED02AB9DED240B1AEE901A10EE62
:104D3000900A8DED000B61F31E0003909DED020BB8
:104D40009AE78DED028B9DED240B18EE901A10EE74
:104D5000900A8DED000B61F31E0003909DED020B98
:104D60008AE709DA9DED240B51EC190B53EC102B5B
:104D7000FBF745FB1EE020E09DED240B7CE786421F
:104D80001BDAB4F1804F0DD0A4F10050B0F1FF5008
:104D900013D1002D11DB9DED240B51EC100B01F014
:104DA00071FB07E09DED240B53EC102B51EC100B25
:104DB00000F0C2BC41EC100B5EE79DED240B51EC02
:104DC000100B01F0E5F9BAF1000FCDE90E0142D167
:104DD0009FED710B46B3A6F1E040B0F17F600CD0BF
:104DE0005E4538D1002D00DAA7B3022F0CBF012099
:104DF0004FF0FF30FBF77AFCDCE7002D01DD002CE3
:104E00000DDA002D01DD002C1FDB002D16DA002C41
:104E100014DB012F08BF9FED620B3FF42DAFB0EE06
:104E20004A0AF0EE6A0A27E7022F18BF002D0CD0BD
:104E3000012F0AD1002DFFF61FAF06E0002DB8BFED
:104E4000002C08DA012F3FF417AFB0EE480AF0EE5D
:104E5000680A11E71BE0012000EBE57050EA07014A
:104E600015D0791EB0EE498AF0EE698A084308BF72
:104E70009FED4D8B4E480025804570DD4D494E48D5
:104E8000884514DDB0420DDB002C19DB2FE001203A
:104E900001F036F916B0BDEC0E8B04B0BDE8F04D54
:104EA00001F0EEB8B34502DC002C09DC1FE08642BD
:104EB00002DA002C1BDA03E05E452BDD002C16DD48
:104EC000022001F01DF901F0EBF88DED020B53EC1F
:104ED0001A2B51EC180BFBF720FACDE900010399CE
:104EE000019861F31E0003909DED020BC4E60220C1
:104EF00001F006F901F0E4F810EE901A18EE900AAD
:104F00008DED020B8DED008B61F31E0003909DED86
:104F1000020BB1E69DED0E0B53EC192B51EC100B6F
:104F2000FBF7F5F99FED260BCDE9080153EC102BAB
:104F30009DED080B51EC100BFBF7EFF99FED221BD9
:104F400053EC112BFBF7E6F99DED081B53EC112BED
:104F5000FBF7E3F99FED1E1B53EC112B3CE08CE0BB
:104F6000FFFF1F00FFFF0F00000000000000F03FE8
:104F70000000F03F0000F07F0000404301FCFFFF15
:104F8000000000000000F07F0000000000000000B2
:104F9000A61F0000000000000000000000000080CC
:104FA000000000000000F0FF000000000000F0BF63
:104FB0000000E0410000F043FFFFEF3F0000000071
:104FC000000000000000D03F555555555555D53FC0
:104FD000000000000000E03FFBF79CF99DED080B8E
:104FE00041EC1A0B53EC102B51EC100BFBF795F91D
:104FF00053EC1A2BFBF791F941EC1A0B9FEDFE0BCA
:1050000053EC102B9DED080B51EC100BFBF785F9C1
:1050100041EC1B0B9FEDFA0B51EC1A0B53EC102BD0
:10502000FBF77BF941EC1A0B9FEDF70B53EC102BC0
:105030009DED080B51EC100BFBF76FF953EC1A2B9D
:10504000FBF765F941EC1A0B51EC1B0B53EC1A2BD7
:10505000FBF7BCF80690CDE906519DED060B53EC2D
:105060001B2B51EC100BFBF752F953EC1A2BFBF7EF
:1050700051F941EC100B00F0A1B90020B6F5801FEA
:105080000EDA9FEDE30B53EC102B9DED0E0B51EC64
:10509000100BFBF742F9CDE90E016FF034000E461C
:1050A00000EB2650A0F2FF37C6F31300DA4940F0B8
:1050B0007F6646F040568842D8BF002408DDD749B5
:1050C0008142C8BF012403DC0024A6F580167F1CA2
:1050D000D348784400EBC4000F9690ED00CB9DEDD3
:1050E0000E0B53EC1C2B51EC100BFBF710F99DED44
:1050F0000E0B41EC1B0B53EC1C2B51EC100BFBF774
:1051000065F841EC100B51EC190B53EC102BFBF72D
:1051100076F941EC1D0B51EC1B0B53EC1D2BFBF7EF
:10512000FCF841EC1A0BBF488DED10AB784410959C
:1051300090ED000B4FF0005040EA660000EB844019
:105140008DED080B00F5002009909DED080B53EC48
:105150001C2B51EC100BFBF7DAF89DED0E1B53ECFA
:10516000112BFBF7D7F841EC100B53EC102B9DEDF6
:10517000100B51EC100BFBF7D0F89DED080B41EC38
:105180001C0B53EC102B9DED100B51EC100BFBF78F
:10519000C4F853EC1B2BFBF7BDF853EC1C2BFBF7AF
:1051A000B6F853EC1D2BFBF7B8F841EC1C0B53EC95
:1051B0001A2B51EC1A0BFBF7B0F841EC1B0B9A4879
:1051C0000621B0EE4B0AF0EE6B0A784400F018FEB0
:1051D000B0EE401AF0EE601AB0EE41DAF0EE61DAAD
:1051E00053EC1B2B51EC1B0BFBF797F853EC1D2BCF
:1051F000FBF793F89DED100B41EC1B0B53EC1A2BB6
:1052000051EC100BFAF7E2FF53EC1C2BFBF785F87F
:1052100053EC1B2BFAF7DAFF9DED100B41EC1B0B47
:1052200053EC102B51EC100BFBF777F841EC1D0BF6
:105230009FED7FEB53EC1E2BFAF7C8FF53EC1B2BB3
:10524000FAF7C4FF0890CDE908519DED080B53EC27
:105250001E2B51EC100BFBF75AF853EC1D2BFBF7F0
:1052600056F853EC1B2BFBF755F89DED080B41EC62
:105270001D0B53EC102B9DED100B51EC100BFBF79D
:105280004CF841EC1B0B53EC1A2B51EC1D0BFBF7AC
:1052900044F89DED080B41EC1A0B53EC102B51EC2C
:1052A0001C0BFBF73AF853EC1A2BFAF78FFF41EC83
:1052B0001A0B51EC1B0B53EC1A2BFAF787FF0C90CF
:1052C000CDE90C519DED0C0B53EC1B2B51EC100B4D
:1052D000FBF71DF853EC1A2BFBF71CF841EC1B0BEA
:1052E0009FED550B53EC102B9DED0C0B51EC100B5F
:1052F000FBF713F841EC1A0B9FED510B51EC1B0B14
:1053000053EC102BFBF709F841EC1B0B9FED4E0BF8
:1053100053EC102B9DED0C0B51EC100BFAF7FDFF2D
:1053200053EC1B2BFAF752FF41EC100B4848784422
:1053300000EBC40090ED001B51EC100B53EC112B53
:10534000FAF744FF41EC1B0B3846FBF7CFF9CDE9E8
:10535000080153EC1B2B51EC1A0BFAF737FF41EC09
:10536000100B3C48784400EBC40090ED00CB51ECAE
:10537000100B53EC1C2BFAF729FF9DED081B53EC87
:10538000112BFAF723FF0690CDE906519DED080B8E
:1053900053EC102B9DED060B51EC100BFAF7B7FFF9
:1053A00053EC1C2BFAF7B3FF53EC1A2BFAF7AFFFB1
:1053B00053EC1B2BFAF7AEFF41EC100B9DED261BB7
:1053C00053EC102B8DED001B00959DED260B51EC41
:1053D000100BFAF7A2FF9DED000B41EC1A0B53ECFA
:1053E000102B9DED260B51EC100BFAF790FF9DED65
:1053F000061B53EC112B2FE0000000604715F73F10
:10540000FE822B654715F73F44DF5DF80BAE543E37
:1054100000000000000040438E9803007AB60B00A5
:10542000F21A0000501B00002A1A000000000000C1
:105430000000000000000840000000E009C7EE3F47
:10544000FD033ADC09C7EE3FF5015B14E02F3EBED9
:10545000B618000070180000FAF75FFF53EC1A2B23
:10546000FAF7B4FE9DED060B41EC1A0B53EC102B32
:105470009DED000B51EC100BFAF74FFFCDE90C013D
:105480009DED0C0B51EC1A0B53EC102BFAF79EFE12
:10549000CDE902010C46AA498C422FDB611A084370
:1054A00018D19DED0C0B53EC102B9DED020B51EC24
:1054B000100BFAF72CFF41EC1B0B9FEDA30B51ECEB
:1054C0001A0B53EC102BFAF781FE53EC1B2BFBF756
:1054D0001FF92DD2022000F013FE00F0E1FD10EEC6
:1054E000901A18EE900A8DED020B8DED008B61F392
:1054F0001E0003909DED020BFFF7BEBB944A24F003
:105500000041914214D39349214408437FF4EFAC06
:105510009DED0C0B53EC102B9DED020B51EC100B81
:10552000FAF7F5FE53EC1A2BFBF7F2F87FF6DFAC37
:1055300024F000408849894A002601EB205182422C
:105540002BDA481C4FF4801121FA00F02044844AE1
:10555000C0F30A517A44A1F2FF3192ED000B814A67
:105560008DED080BCA4020EA0202C0F3130040F49C
:105570008010C1F1140120FA01F60992002CB8BF85
:1055800076429DED080B53EC102B9DED0C0B51EC6E
:10559000100BFAF7BCFECDE90C019DED0C0B51ECA4
:1055A0001A0B53EC102BFAF711FE9FED6F0B0890BE
:1055B000CDE9085153EC102B9DED080B51EC100B6D
:1055C000FAF7ABFE41EC1B0B9FED690B53EC102B74
:1055D0009DED080B51EC100BFAF79FFE9DED0C0BA7
:1055E00041EC1C0B53EC102B9DED080B51EC100BF8
:1055F000FAF78DFE53EC1A2BFAF78CFE9FED5E1B2B
:1056000053EC112BFAF789FE53EC1C2BFAF7DEFD55
:1056100041EC1A0B51EC1B0B53EC1A2BFAF7D6FD8D
:10562000CDE902019DED020B53EC1B2B51EC100B4D
:10563000FAF76DFE53EC1A2BFAF76CFE9DED020B98
:1056400041EC1A0B53EC102B51EC100BFAF765FEE2
:10565000CDE908014A489DED080B0521784400F08A
:10566000CFFB9DED081B51EC100B53EC112BFAF7FF
:1056700054FE9DED021B53EC112BFAF74BFECDE9C6
:1056800006019DED020B53EC1A2B51EC100BFAF7AF
:1056900044FE53EC1A2BFAF799FD9FED3B0B41ECBE
:1056A0001A0B53EC102B9DED060B51EC100BFAF777
:1056B0002EFE9DED060B41EC1B0B53EC102B9DEDCC
:1056C000020B51EC100BFAF728FE53EC1B2BFAF7E8
:1056D00096FE53EC1A2BFAF71AFE9DED021B53ECC3
:1056E000112BFAF714FE53EC192BFAF713FECDE940
:1056F000020101EB065001150029C8BF039015DC1B
:105700009DED020B324651EC100BFAF7D8FFFEF775
:1057100083FE042808BF00F0D3FC32469DED020B47
:1057200051EC100BFAF7CBFFCDE902019DED020B16
:1057300051EC180B53EC102BFAF7EFFDFFF73ABBC7
:105740000000904000000000FE822B654715973C4A
:1057500000CC904000346F3F01FCFFFF0000E03FB1
:1057600028170000FFFF0F0000000000432EE63F57
:10577000396CA80C615C20BEEF39FAFE422EE63F80
:10578000C8150000000000000000000000000040FC
:1057900010B52F499FED2C1B2DED020B84B0059801
:1057A00020F000408842DCBF00209DED040B32DD7C
:1057B0002849884209D1049840B94FF0010000F00F
:1057C0009FFC00F05DFC06B010BD05DB9DED040BF9
:1057D00000F042FC06B010BD68469DED040B00F0E1
:1057E0003BF810F0030011D0012818D09DED021BEA
:1057F0009DED000B02281AD000F04AFA51EC100B74
:1058000081F0004106B041EC100B10BD9DED021B74
:105810009DED000B012000F06FFB06B010BD9DED6B
:10582000021B9DED000B00F033FA06B010BD012005
:1058300000F062FB51EC100B81F0004106B041EC2E
:10584000100B10BD00000000000000000000000070
:10585000FB21E93F0000F07F2DE9F14F04462DEDDB
:10586000020B2DED088B8AB09FEDE70B80ED020B4C
:10587000139EE74826F0004585420ADC9DED120B99
:10588000002084ED000B0AB0BDEC088B03B0BDE82E
:10589000F08FE0489FEDE0AB9FEDE1BBA84247DD14
:1058A000E14F9FEDE39B9FEDE48B9DED120B53ECDD
:1058B0001A2B51EC100B002E1CDDFAF728FD41ECE1
:1058C000100BBD4208D053EC1B2B51EC100BFAF718
:1058D0001EFDC4E900010BE053EC192B51EC100B39
:1058E000FAF715FD53EC182BFAF711FDC4E9000186
:1058F0000120C8E7FAF76AFC41EC100BBD4208D062
:1059000053EC1B2B51EC100BFAF760FCC4E90001BF
:105910000BE053EC192B51EC100BFAF757FC53EC3E
:10592000182BFAF753FCC4E900014FF0FF30AAE747
:10593000C348A84279DB9DED120B51EC100B00F02F
:1059400027FC41EC180B9FEDC00B53EC102BFAF722
:10595000E4FC9FEDBF1B53EC112BFAF737FCFAF771
:1059600062FF0746FAF7C2FE41EC190B53EC1A2B03
:10597000FAF7D3FC53EC182BFAF7CCFC41EC180BDC
:1059800053EC1B2B51EC190BFAF7C7FCDFF8C8A23C
:1059900041EC100B4FEA15580125FA4453EC102B3B
:1059A00051EC180BFAF7B3FC032DC4E900013DD00C
:1059B000C1F30A5005EB4511A8EB000011398142F3
:1059C00034DA0AEB051BB0EE48AA9BED000BF0EEB3
:1059D00068AA53EC102B51EC190BFAF79EFC41EC22
:1059E0001B0B51EC1A0B53EC1B2BFAF790FC41EC00
:1059F000180B51EC1A0B53EC182BFAF788FC53ECEC
:105A00001B2BFAF784FC9BED020B41EC1A0B53ECB9
:105A1000102B51EC190BFAF780FC53EC1A2BFAF708
:105A200076FC41EC100B6D1CB8E70EE0002EA8BF11
:105A30003846BFF628AF94ED000B51EC100B81F007
:105A40000041C4E9000178421DE7C6F3130040F4A9
:105A5000801EC6F30A50A0F2F530471100F01F0572
:105A6000C5F12000DDF848B00890002006900790AE
:105A70000520EC467949002D07EB0002794408BF68
:105A800051F8221009D051F8223001EB8201AB40CD
:105A90004A68089922FA01F11943A1FB0E26A1FBDD
:105AA0000B131A449A4234BF0123002303EB060868
:105AB0000CEB8003D3E901A60E448E4234BF0121D2
:105AC000002192448A4411B1924502D903E09245E3
:105AD00001D2012100E00021C3E901A641444CF8B4
