:020000040800F2
:10000000700A0020A9010008B1010008B30100082E
:10001000B5010008B7010008B901000800000000A0
:10002000000000000000000000000000BB0100080C
:10003000BD01000800000000BF010008D149000810
:10004000C3010008C3010008C3010008C301000880
:10005000C3010008C3010008271100083D11000872
:10006000C3010008C301000849110008C3010008CA
:10007000C3010008C3010008C3010008C301000850
:10008000C3010008C3010008C3010008000000000C
:10009000000000000000000000000000C301000894
:1000A000C3010008C3010008C3010008C301000820
:1000B000C3010008C3010008C3010008C301000810
:1000C000C3010008C3010008C3010008C301000800
:1000D000C3010008C301000811500008000000001F
:1000E00031110008C3010008C3010008000000002E
:1000F000000000000000000000000000C301000834
:1001000000000000C3010008C3010008C30100088B
:1001100000000000000000000000000000000000DF
:10012000C3010008C3010008C3010008C30100089F
:10013000C3010008000000000000000000000000F3
:10014000000000000000000000000000C3010008E3
:10015000C3010008C3010008C3010008C30100086F
:10016000C3010008C30100080000000000000000F7
:10017000000000000000000000000000000000007F
:1001800000000000C30100080000000000000000A3
:10019000C3010008DFF80CD000F0EAFA004800477D
:1001A000C5700008700A00200648804706480047CE
:1001B000FEE7FEE7FEE7FEE7FEE7FEE7FEE7FEE717
:1001C000FEE7FEE7754A0008950100082DE9FE4F9D
:1001D000804681EA0300C00F0C46009021F00041E8
:1001E00023F00045B8EB0200A94105D24046214664
:1001F00090461C460B46024623F00040104347D071
:10020000270DC7F30A00C3F30A510290401A019068
:1002100040286BDAC3F3130040F4801B0098924629
:1002200020B10023D2EB030A63EB0B0B0198594674
:10023000C0F14002504600F0A5F906460D46504672
:100240005946019A00F0ADF910EB08006141002415
:1002500087EA115284EAE7731A4340D0009A62B3E6
:10026000019A012A4FEA075215DC001B61EB0201DB
:100270004FF0004202EA0752CDE90042001C41F56E
:10028000801132462B4600F0E4F903B0BDE8F08F50
:1002900040462146F9E7001B61EB0201001C41F5D5
:1002A000801300185B412018A2F5001747EB0301EB
:1002B00040EAD570B6196D4111E06D084FEA360677
:1002C00045EAC0754FEA0752001B61EB0201001CB2
:1002D00041F5801149084FEA30000019514132467A
:1002E0002B4603B0BDE8F04F00F0A4B900980122FE
:1002F00040000023D0EB020263EBE073009821463C
:100300004FEAE074B8EB000061EB0401E9E783F029
:1003100000435BE781F0004158E72DE9FE4F81EA99
:10032000030404F0004421F0004100944FF0000B5E
:1003300023F0004350EA01045ED052EA03045BD08C
:10034000C3F30A54C1F30A552C44A4F2F3340194C4
:10035000A0FB0254C1F3130141F48011C3F3130352
:1003600043F4801301FB024400FB034E840A970A06
:1003700044EA815447EA8357A4FB076802958D0A33
:1003800005FB07854FEA932C04FB0C542705029DBF
:100390004FEA065847EA1637B5EB08056EEB070C2F
:1003A000870E920E47EA811742EA8312A7FB0201E9
:1003B000B6EB0B0164EB00042B0D43EA0C335E1823
:1003C00044EB1C50DA465146E7FB0201C5F3130427
:1003D0004FEA0B3343EA14534FEA0432019C43EAD9
:1003E0000603A4F10C040294009CCDE900B400F0D3
:1003F00030F903B0BDE8F08F00200146F9E72DE9A0
:10040000F04D81EA030404F0004B21F0004514464E
:100410004FF0000A23F0004150EA050220D054EAD0
:1004200001021DD0C5F30A570246C5F31303C1F3F9
:100430001300C1F30A5640F4801543F48013A7EB70
:100440000608101BD64608F2FD3873EB050002D3F0
:1004500008F1010801E092185B41B8F1000F03DADE
:1004600000200146BDE8F08D00204FF480110646C3
:1004700084460EE0171B73EB050705D3121B63EBD5
:10048000050306434CEA010C49084FEA3000921874
:100490005B4150EA0107EDD152EA030012D082EA33
:1004A000040083EA0501084305D0101BAB4106D2C6
:1004B0000122002306E000224FF0004302E06FF02B
:1004C000010253101AEB06004CEB085110EB0A0026
:1004D00041EB0B01BDE8F04D00F0ACB80EB540F2B9
:1004E000334102910021CDE900110A460B4600F08C
:1004F000B0F803B000BD00F0004230F000400AD078
:10050000C10D01F56071C0F3160042EA0151C20845
:1005100040071143704700200146704730B5041E64
:1005200071F1000404DB4FF00044404264EB010130
:10053000141E73F1000405DB1C464FF000435242C9
:1005400063EB04038B4208BF824230BD01F00043DD
:1005500030B421F0004150EA010206D00A0DA2F5A4
:100560006072C1F31301002A02DC30BC0020704726
:10057000440F44EAC104C100E01830BC00EBC25093
:1005800000F021B8202A04DB203A00FA02F1002012
:1005900070479140C2F1200320FA03F319439040C1
:1005A0007047202A06DBCB17203A41FA02F043EAD3
:1005B000E07306E041FA02F3D040C2F1200291401C
:1005C0000843194670470029A8BF7047401C4900DE
:1005D00008BF20F00100704710B4B0FA80FC00FAA8
:1005E0000CF050EA010404BF10BC704749B1CCF1D3
:1005F000200421FA04F411FA0CF118BF012121435F
:100600000843A3EB0C01CB1D4FEA00614FEA102019
:1006100042BF002010BC704700EBC35010440029BB
:10062000A4BF10BC7047401C490008BF20F0010067
:1006300010BC704710B5141E73F1000408DA401C9A
:1006400041F1000192185B411A4301D120F00100F1
:1006500010BD2DE9F04D92469B4611B1B1FA81F2E1
:1006600002E0B0FA80F220329046FFF78BFF04469A
:100670000F4640EA0A0041EA0B0153465A46084336
:1006800013D0114653EA010019D0C8F14002504678
:1006900000F080F805460E46504659464246FFF7A0
:1006A00071FF084305D0012004E020463946BDE82B
:1006B000F08D0020054346EAE0762C4337430A9844
:1006C0006305E40AA0EB08000022FD0A44EA47544F
:1006D0000A3002D500200146E9E7010510196941F9
:1006E000DDE9084500196941BDE8F04DA2E770B5A4
:1006F00021F0004303430CD0C1F30A550024D5EB8D
:10070000040564EB0403D617AD1AB34102DB0020E5
:10071000014670BD201841EB025170BD0EB5C10FEE
:1007200080EAE0700844CA07002140F233438DE8B4
:100730000E000A460B46FFF78CFF03B000BD000019
:1007400030B5041E71F1000404DB4FF00044404258
:1007500064EB0101141E73F1000405DB1C464FF02D
:100760000043524263EB0403994208BF904230BDFC
:10077000064C074D06E0E06840F0010394E80700EE
:1007800098471034AC42F6D3FFF708FD107C000800
:10079000307C0008202A04DB203A21FA02F00021F4
:1007A000704721FA02F3D040C2F120029140084381
:1007B000194670472DE9F04D00231A461B1A8A414D
:1007C00003DB00200146BDE8F08DC1F30A52C1F3FE
:1007D000130141F480154FF0000BD10702D100182E
:1007E0006D41521E0027044640F2FF11384601EBCE
:1007F000620A3E468046024600204FF48011FFF711
:10080000C9FFC2197141BB1846EB0100B4EB030CE0
:1008100075EB000C04D3E41A65EB000517460E4691
:10082000241908F101006D4180463428E3DDF919EF
:1008300046EB0600091BA84103D24FF0FF321346D6
:1008400001E0002213461BEB070046EB0A51BDE80E
:10085000F04DFFF7EFBE70B5C1F30A5201F000454D
:100860000024C1F3130140F2FF3341F480119A4296
:1008700001DA002070BD40F233439A42A2F23342C3
:1008800003DC5242FFF786FF00E090402C43F1D09A
:10089000404270BD70B58C1810F8015B15F007036D
:1008A00001D110F8013B2A1106D110F8012B03E009
:1008B00010F8016B01F8016B5B1EF9D12B0705D411
:1008C0000023521E0DD401F8013BFAE710F8013B5A
:1008D000CB1A921C03E013F8015B01F8015B521E76
:1008E000F9D5A142D8D3002070BD000070B50446F0
:1008F000024D2146284600F021F870BDE402002098
:1009000070B50446024D2146284600F017F870BD28
:10091000FC02002070B50446024D2146284600F036
:100920000DF870BD1403002070B50446024D214639
:10093000284600F003F870BD2C03002070B5044673
:100940000D46207861698847E068416828468847F5
:100950002069416805F15800884770BD00B502461E
:10096000002000F0D9FB904201D10E4800BD0120CB
:1009700000F0D2FB904202D10A481830F6E702207C
:1009800000F0CAFB904202D106483030EEE7032067
:1009900000F0C2FB904202D102484830E6E7002056
:1009A000E4E70000E402002010B50446012C06D163
:1009B000062000F0B3FE072000F0B0FE05E00620A0
:1009C00000F076FE072000F073FE10BD10B5002089
:1009D00000F0A2FB034600F021FA00F09FF900F0BE
:1009E000DFF80120FFF7E0FF10BD000070B50446FE
:1009F000024D2146284602F057FD70BD040100203B
:100A000070B50446024D2146284602F04DFD70BDEA
:100A10004001002070B50446024D2146284602F0F0
:100A200043FD70BD7C01002070B50446024D214697
:100A3000284602F039FD70BDB801002070B50446AB
:100A4000024D2146284602F02FFD70BDF401002022
:100A500070B50446024D2146284602F025FD70BDC2
:100A60003002002070B50446024D2146284602F0AF
:100A70001BFD70BD6C02002070B50446024D21467E
:100A8000284602F011FD70BDA802002070B5064690
:100A90000C461546304600F0C1F920B129462046E3
:100AA00002F08CFC70BDFF20FCE770B506460C46DA
:100AB0001546304600F0B2F920B12946204602F032
:100AC00077FE70BDFF20FCE770B505460C46284652
:100AD00000F0A4F918B1204602F0A6FE70BD002077
:100AE000FCE770B505460C46284600F097F910B1B2
:100AF000204602F0BBFE70BD70B505460C46284688
:100B000000F08CF910B1204602F0CAFE70BD70B53D
:100B100006460C461546304600F080F918B12946C5
:100B2000204602F0D7FE70BD2DE9F04107460C4685
:100B300015461E46384600F071F920B13246294666
:100B4000204602F0E5FEBDE8F0812DE9F0410746C0
:100B50000C4615461E46DDF81880384600F05EF952
:100B600028B1434632462946204602F0F1FEBDE850
:100B7000F08170B505460C46284600F04FF910B1DB
:100B8000204602F003FF70BD70B505460C462846AE
:100B900000F044F910B1204602F012FF70BD0000D1
:100BA00070B51D4A11895068002200F0FFFC1A4AF6
:100BB00011895068012200F0F9FC002000F0ACFA25
:100BC00004461CE0204600F029F9144A11895068B7
:100BD000012200F0EBFC002002F00CFF054607E0CC
:100BE000284603F0E1F9284602F01EFE681CC5B253
:100BF000012002F0FFFEA842F2DA601CC4B202201B
:100C000000F08AFAA042DDDA002000F085FA0346FF
:100C100000F004F970BD000044030020B40300207C
:100C20002DE9F04107460C4615461E46384600F0B1
:100C3000F5F820B132462946204602F0E5FEBDE82F
:100C4000F0812DE9F04107460C4615461E46384610
:100C500000F0E4F820B132462946204603F072F94C
:100C6000BDE8F08170B505460C46284600F0D6F880
:100C700010B1204603F098F970BD70B505460C46DA
:100C8000284600F0CBF810B1204603F0A7F970BD5C
:100C90002DE9F04107460C4615461E46384600F041
:100CA000BDF820B132462946204603F0B1F9BDE82F
:100CB000F0812DE9F04107460C4615461E463846A0
:100CC00000F0ACF820B132462946204603F0BCF9CA
:100CD000BDE8F08170B505460C46284600F09EF848
:100CE00010B1204603F0CCF970BD70B505460C4636
:100CF000284600F093F810B1204603F0DBF970BDF0
:100D000070B506460C461546304600F087F818B117
:100D10002946204603F0E8F970BD000010B586B002
:100D20003848006838490968084336490860364839
:100D3000008901901120029000200390032004906C
:100D40003149486801A900F025FA2E4800682F496A
:100D5000096808432B4908602C48008901902C48F9
:100D60000290002003902949486801A900F012FA76
:100D700000221146062000F007FD224800682549A0
:100D8000096808431F4908602248008901902048EB
:100D90000290002003901F49486801A900F0FAF969
:100DA00000221146072000F0EFFC002000F0B4F90B
:100DB000044620E01348006804EB4401164A52F848
:100DC000211008430F49086004EB4400114601EB71
:100DD00080000089019001200290002003900320F0
:100DE000049004EB440102EB8101486801A900F082
:100DF000D1F9601CC4B2022000F08EF9A042D9DA09
:100E000006B010BD303802404403002050030020DB
:100E1000000021105C030020680300200146032924
:100E200018DA01EB41000C4A52F820000B4A10601E
:100E300001EB4100084A02EB80004068074A50601D
:100E400001EB4100044A02EB80000089034A108153
:100E5000012070470020FCE768030020B403002055
:100E600010B52DED0C8BB0EE408AF0EE608A9FED50
:100E7000610AB0EE409AB5EEC08AF1EE10FA26DDB6
:100E8000F5EEC08AF1EE10FA21DD88EE880A10EE48
:100E9000104A2046FFF72FFB41EC1C0BB0EE4C0A2A
:100EA000F0EE6C0A04F094FBB0EE40BAF0EE60BADB
:100EB0009FED510B53EC102B51EC1B0BFFF72DFA50
:100EC00041EC1A0BFFF742FB09EE100A8CE0B5EE7D
:100ED000C08AF1EE10FA2ADDF5EEC08AF1EE10FAC2
:100EE00025D288EE880A10EE104A2046FFF703FB51
:100EF00041EC1D0BB0EE4D0AF0EE6D0A04F068FBFC
:100F0000B0EE40CAF0EE60CA51EC1C0B81F000411B
:100F100041EC1B0B9FED380B53EC102BFFF7FDF949
:100F200041EC1A0BFFF712FB09EE100A5CE0B5EE7C
:100F3000C08AF1EE10FA2ED2F5EEC08AF1EE10FA68
:100F400029DD88EE880A10EE104A2046FFF7D3FA12
:100F500041EC1D0BB0EE4D0AF0EE6D0A04F038FBCB
:100F6000B0EE40CAF0EE60CA9FED250B53EC102B9B
:100F700051EC1C0BFFF7CEF941EC1B0B9FED1E0B48
:100F800053EC102BFFF7C9F941EC1A0BFFF7DEFA0F
:100F900009EE100A28E088EE880A10EE104A204672
:100FA000FFF7A9FA41EC1D0BB0EE4D0AF0EE6D0A09
:100FB00004F00EFBB0EE40CAF0EE60CA9FED100BDD
:100FC00053EC102B51EC1C0BFFF700F941EC1B0B01
:100FD0009FED090B53EC102BFFF79FF941EC1A0B17
:100FE000FFF7B4FA09EE100AB0EE490ABDEC0C8B1B
:100FF00010BD00000000000000000000608EE24014
:10100000182D4454FB21094010B52DED108B86B0EE
:10101000F0EE408AB0EE60FAB0EE418A18EE100AA7
:10102000FFF769FA41EC1E0BB0EE4E0AF0EE6E0AC5
:1010300004F03AFCB0EE40DAF0EE60DA9FED320BED
:1010400053EC102B51EC1D0BFFF767F941EC1C0B17
:101050009FED2F0B53EC102BFFF7B8F841EC1A0B58
:1010600018EE100AFFF747FA41EC1D0BB0EE4D0ADF
:10107000F0EE6D0A05F0A4FAB0EE40CAF0EE60CAD8
:101080009FED210B53EC102B51EC1C0BFFF745F996
:1010900041EC1B0B53EC1A2BFFF7B1F941EC190B88
:1010A000B0EE490AF0EE690A04F092FA8DED020BF7
:1010B0008FEE280A10EE104A2046FFF71CFA41EC8A
:1010C000190BB0EE490AF0EE690A04F081FA8DEDD1
:1010D000000B9DED020B53EC102B9DED000B51EC22
:1010E000100BFFF773F8CDE904019DED040B51ECF3
:1010F000100BFFF72BFA0FEE900AB0EE6F0A06B056
:10110000BDEC108B10BD0000000000000000694025
:101110000000000000C072400146032901DA0846C1
:101120007047FF20FCE710B5012000F025F810BD46
:1011300010B54FF4005000F01FF810BD10B502209C
:1011400000F01AF810BD000010B50748006800F064
:10115000100040B1102004490860002002F030FC6B
:10116000012002F02DFC10BD143C014000487047E6
:10117000B47600087047000010B5044604480068C3
:10118000204020B1024804602046FFF7F3FF10BD65
:10119000143C01402DE9F84306460C464FF0000987
:1011A000C8460025CA4886420ED0CA4886420BD09F
:1011B000C948864208D0C948864205D0C8488642F8
:1011C00002D0C848864200D103E0C521C6A005F080
:1011D000B5FE208880B200B103E0C621C2A005F0B0
:1011E000ADFE606830B36068012823D060681128C4
:1011F00020D0606802281DD0606812281AD0C94922
:101200006068884216D0C8496068884212D0C749D1
:10121000606888420ED0C649606888420AD0C549D5
:101220006068884206D0C4496068884202D060681D
:10123000032800D103E0C721ABA005F07FFEA06822
:1012400028B1A068012802D0A068022800D103E0DC
:10125000C821A5A005F072FE002734E1012000FAA4
:1012600007F9206800EA0908C8457DD160680228AE
:1012700002D06068122863D12069E8B32069092888
:1012800045D02069C0B32069B0B32069A0B32069FC
:1012900090B3206901283AD02069012837D020690D
:1012A000022834D02069022831D0206902282ED0AB
:1012B000206904282BD02069042828D0206904281C
:1012C00025D02069052822D0206905281FD0206953
:1012D00006281CD02069052819D02069072816D0B7
:1012E0002069072813D02069082810D020690A280F
:1012F0000DD02069092800E009E008D020690928FC
:1013000005D020690C2802D020690F2800D103E005
:10131000D92175A005F012FEF90806F1200050F859
:1013200021507807C10E0F20884085437907C90EE8
:10133000206988400543F90806F1200040F8215053
:1013400035687900032088408543207900F0030048
:101350007900884005433560606801280AD06068DC
:10136000022807D0606800E0ACE0112802D0606875
:10137000122823D1E06840B1E068012805D0E06878
:10138000022802D0E068032800D103E0EC2156A037
:1013900005F0D4FDB56879000320884085437900C5
:1013A000E06888400543B56075680120B840854312
:1013B0002079C0F30010B84005437560F5687900E6
:1013C0000320884085437900A06888400543F56084
:1013D000606800F08050B0F1805F73D100BF574863
:1013E000006840F48040554908600846006800F4F1
:1013F0008040009000BF00BF5148B90850F821500C
:10140000B807010F0F20884085433148864201D13B
:10141000002014E02F48864201D101200FE02E4821
:10142000864201D102200AE02C48864201D10320E5
:1014300005E02B48864201D1042000E00520B907D1
:10144000090F884005433E48B90840F821503D48FF
:10145000056825EA0805606800F48030B0F5803F33
:1014600001D145EA080537480560001D056825EAF1
:101470000805606800F40030B0F5003F01D145EA8E
:1014800008053048001D0560001D056825EA0805AF
:10149000606800F48010B0F5801F01D145EA0805AE
:1014A000284808300560001D056825EA08056068C1
:1014B00000F40010B0F5001F01D145EA08052148ED
:1014C0000C3005607F1C102FFFF4C8AEBDE8F88318
:1014D000000002400004024000080240000C0240EC
:1014E00000100240001C02402E2E5C2E2E5C447226
:1014F00069766572735C53544D3332463478785F45
:1015000048414C5F4472697665725C5372635C73E8
:10151000746D3332663478785F68616C5F677069C8
:101520006F2E630000001110000021100000311028
:101530000000121000002210000032104438024057
:1015400008380140003C014070B506460C46A0B288
:1015500000B104E04FF4C87105A005F0EFFC30695C
:10156000204008B1012500E00025284670BD00009C
:101570002E2E5C2E2E5C447269766572735C535419
:101580004D3332463478785F48414C5F4472697617
:1015900065725C5372635C73746D33326634787851
:1015A0005F68616C5F6770696F2E630070B5064697
:1015B0000C461546A0B200B104E040F2B11109A0FA
:1015C00005F0BCFC0DB1012D00D104E04FF4D97140
:1015D00004A005F0B3FC0DB1B46101E02004B061DA
:1015E00070BD00002E2E5C2E2E5C447269766572F2
:1015F000735C53544D3332463478785F48414C5FC6
:101600004472697665725C5372635C73746D3332D5
:10161000663478785F68616C5F6770696F2E63000D
:101620000148006870470000B000002002480068D0
:10163000401C014908607047B000002010B50D48FB
:10164000006840F400700B4908600846006840F4E8
:10165000806008600846006840F4807008600320DD
:1016600000F0FEF8002000F007F800F017F8002066
:1016700010BD0000003C024070B5044600F060FB65
:101680004FF47A71B0FBF1F5284601F002FA00221E
:101690002146501E00F078F8002070BD10B50720DC
:1016A00000F0DEF800221146501E00F06DF810BD6B
:1016B00010B50446002C00DB03E0E02106A005F095
:1016C0003DFC00BF04F01F0101208840124962095F
:1016D00041F8220000BF10BD2E2E5C2E2E5C4472FD
:1016E00069766572735C53544D3332463478785F53
:1016F00048414C5F4472697665725C5372635C73F7
:10170000746D3332663478785F68616C5F636F72D2
:101710007465782E6300000080E100E010B5044697
:10172000002C00DB03E0D02107A005F007FC00BF80
:1017300004F01F01012088406109890001F1E021C6
:10174000C1F8000100BF10BD2E2E5C2E2E5C44722D
:1017500069766572735C53544D3332463478785FE2
:1017600048414C5F4472697665725C5372635C7386
:10177000746D3332663478785F68616C5F636F7262
:101780007465782E630000002DE9F05F80460C46FA
:1017900015460027102D00D203E0BC2120A005F043
:1017A000CDFB102C00D203E0BD211DA005F0C6FB2F
:1017B00002F040FF0746394622462B4601F007005B
:1017C000C0F1070ABAF1040F02D94FF0040A01E090
:1017D000C0F1070AD14600F1040ABAF1070F02D29C
:1017E0004FF0000A01E0A0F1030AD4464FF0010ACD
:1017F0000AFA09FAAAF1010A0AEA020A0AFA0CFA32
:101800004FF0010B0BFA0CFBABF1010B0BEA030BD6
:101810004AEA0B063146404602F014FFBDE8F09F4D
:101820002E2E5C2E2E5C447269766572735C535466
:101830004D3332463478785F48414C5F4472697664
:1018400065725C5372635C73746D3332663478789E
:101850005F68616C5F636F727465782E630000006F
:1018600010B50446072C07D0062C05D0052C03D054
:10187000042C01D0032C00D103E0A42109A005F021
:101880005DFB00BF04F00701164A10684FF6FF0227
:101890001040154A024342EA0120124A106000BF7C
:1018A00010BD00002E2E5C2E2E5C4472697665728F
:1018B000735C53544D3332463478785F48414C5F03
:1018C0004472697665725C5372635C73746D333213
:1018D000663478785F68616C5F636F727465782EC8
:1018E000630000000CED00E00000FA0570B504464E
:1018F0000D4600262068012803D320680F2800D851
:1019000004E04FF41871FBA005F018FB6DB1012D38
:101910000BD0022D09D0032D07D0042D05D0052DA5
:1019200003D0062D01D0072D00D104E040F2612143
:10193000F0A005F003FBFE48006800F00F00A8428D
:101940007CD2FB490D700846006800F00F00A842E9
:1019500001D0012070BD207800F00200022827D1BC
:10196000A068B8B1A068802814D0A068902811D0D1
:10197000A068A0280ED0A068B0280BD0A068C0280E
:1019800008D0A068D02805D0A068E02802D0A068C0
:10199000F02800D104E040F27721D6A005F0CEFA7D
:1019A000E448006820F0F000A1680843E1490860BD
:1019B000207800F00100002850D0606840B16068D5
:1019C000012805D06068022802D06068032800D191
:1019D00004E040F27E21C7A005F0B0FA606801285B
:1019E00007D1D44808380068C0F34040B8B9012096
:1019F000B0E76068022802D06068032807D1CD48AC
:101A000008380068C0F3406048B90120A2E7C9481F
:101A100008380068C0F3400008B901209AE7C548BB
:101A2000006820F0030061680843C2490860FFF7BE
:101A3000F7FD06466068012811D109E048E0FFF78C
:101A4000EFFD801B41F28831884201D9032081E7F4
:101A5000B848006800F00C000428F0D1FDE0606890
:101A6000022810D108E0FFF7DBFD801B41F288312E
:101A7000884201D903206DE7AE48006800F00C00F1
:101A80000828F0D1E9E06068032810D108E0FFF7EA
:101A9000C7FD801B41F28831884201D9032059E7F4
:101AA000A448006800F00C000328F0D1D5E008E05D
:101AB000FFF7B6FD801B41F28831884201D903202F
:101AC00048E79C48006800F00C000028F0D1C4E012
:101AD000207800F00200022827D1A068B8B1A068E1
:101AE000802814D0A068902811D0A068A0280ED01B
:101AF000A068B0280BD0A068C02808D0A068D02863
:101B000005D0A068E02802D0A068F02800D104E049
:101B100040F2D12177A005F011FA8648006820F044
:101B2000F000A168084383490860207800F00100B4
:101B300000284FD0606840B16068012805D0606817
:101B4000022802D06068032800D104E04FF4367107
:101B500068A005F0F3F96068012807D175480838D6
:101B60000068C0F34040B8B90120F3E6606802287D
:101B700002D06068032807D16E4808380068C0F3B7
:101B8000406048B90120E5E66A4808380068C0F3BB
:101B9000400008B90120DDE66648006820F0030037
:101BA0006168084363490860FFF73AFD06466068CC
:101BB000012810D108E0FFF733FD801B41F2883186
:101BC000884201D90320C5E65A48006800F00C009D
:101BD0000428F0D137E06068022810D108E0FFF750
:101BE0001FFD801B41F28831884201D90320B1E6F4
:101BF0005048006800F00C000828F0D123E060682D
:101C0000032810D108E0FFF70BFD801B41F288315B
:101C1000884201D903209DE64648006800F00C0088
:101C20000328F0D10FE008E0FFF7FAFC801B41F237
:101C30008831884201D903208CE63E48006800F0D4
:101C40000C000028F0D13A490D700846006800F0F9
:101C50000F00A84201D001207CE6207800F00400AB
:101C600004281FD1E06878B1E068B0F5805F0BD040
:101C7000E068B0F5A05F07D0E068B0F5C05F03D0C2
:101C8000E068B0F5E05F00D104E040F2323119A025
:101C900005F054F92748006820F4E050E168084353
:101CA00024490860207800F00800082820D1206925
:101CB00078B12069B0F5805F0BD02069B0F5A05FE6
:101CC00007D02069B0F5C05F03D02069B0F5E05FB0
:101CD00000D104E040F2393106A005F02FF9154893
:101CE000006820F46040216940EAC10011490860A1
:101CF000002021E02E2E5C2E2E5C447269766572E7
:101D0000735C53544D3332463478785F48414C5FAE
:101D10004472697665725C5372635C73746D3332BE
:101D2000663478785F68616C5F7263632E6300006D
:101D3000003C024008380240FFF79EFC002009E604
:101D400010B500F045F80949096801F0F001F022EA
:101D500092FAA2F2B2FA82F2D140054A515CC8402E
:101D6000044908600846006810BD000008380240B9
:101D7000A27600088C03002010B5FFF7E1FF0749A9
:101D8000096801F4E0514FF4E05292FAA2F2B2FA7B
:101D900082F2D140024A515CC84010BD083802406E
:101DA000A276000810B5FFF7CBFF0749096801F4D8
:101DB00060414FF4604292FAA2F2B2FA82F2D1404C
:101DC000024A515CC84010BD08380240A2760008A3
:101DD00070B50021002200230020274C246804F065
:101DE0000C0424B1042C04D0082C41D103E0234876
:101DF00040E023483EE0204C241F246804F03F01CB
:101E00001D4C241F246804F4800484B11C4CB4FBD2
:101E1000F1F5194C241F246847F6C076344096FA31
:101E2000A6F6B6FA86F6F44005FB04F20FE0134C72
:101E3000B4FBF1F5104C241F246847F6C0763440FB
:101E400096FAA6F6B6FA86F6F44005FB04F20A4CBA
:101E5000241F246804F440344FF4403595FAA5F566
:101E6000B5FA85F5EC40641C6300B2FBF3F001E0C9
:101E7000024800BF00BF70BD083802400024F400D3
:101E800000127A0038B50446002520680F2800D8D3
:101E900004E04FF48071F4A005F050F8207800F0D1
:101EA0000100002874D0606828B16068012802D061
:101EB0006068052800D104E040F20511EAA005F0B1
:101EC0003DF8F848006800F00C0004280DD0F548F3
:101ED000006800F00C00082813D1F248001F0068C9
:101EE00000F48000B0F5800F0BD1EE480838006890
:101EF000C0F3404000284BD06068002848D1012042
:101F000038BD0020E749891F0870FFF789FB0546A7
:101F100008E0FFF785FB401B41F28831884201D978
:101F20000320EDE7DF4808380068C0F34040002890
:101F3000EFD12079DB49891F08706068A0B1FFF7F5
:101F40006FFB054608E0FFF76BFB401B41F2883151
:101F5000884201D90320D3E7D24808380068C0F38B
:101F600040400028EFD013E0FFF75AFB054608E099
:101F7000FFF756FB401B41F28831884201D903200C
:101F8000BEE7C84808380068C0F340400028EFD1D9
:101F9000207800F0020002287DD1E06810B1E068EE
:101FA000012800D104E04FF4A371AFA004F0C6FFF4
:101FB00020691F2800D804E040F24711AAA004F0CD
:101FC000BDFFB848006800F00C0058B1B548006883
:101FD00000F00C00082821D1B248001F006800F46E
:101FE0008000D8B9AF4808380068C0F3400020B17D
:101FF000E068012801D0012082E7AA48083800687B
:1020000020F0F800F82292FAA2F2B2FA82F22169E4
:1020100091400843A349083908603CE0E06828B3D0
:102020000120A1490860FFF7FBFA054606E0FFF72B
:10203000F7FA401B642801D9032061E79948083862
:102040000068C0F340000028F1D0964808380068C6
:1020500020F0F800F82292FAA2F2B2FA82F2216994
:10206000914008438F490839086014E000208E49E8
:102070000860FFF7D5FA054606E0FFF7D1FA401BE6
:10208000642801D903203BE7864808380068C0F37C
:1020900040000028F1D1207800F00800082837D14E
:1020A000606910B16069012800D104E040F2871135
:1020B0006DA004F043FF6069A8B101207B4908606E
:1020C000FFF7AEFA054606E0FFF7AAFA401B6428C0
:1020D00001D9032014E773486C300068C0F3400056
:1020E0000028F1D014E0002070490860FFF798FA4A
:1020F000054606E0FFF794FA401B642801D9032047
:10210000FEE668486C300068C0F340000028F1D15A
:10211000207800F0040004287BD1A06828B1A068D2
:10212000012802D0A068052800D104E040F2B111D6
:102130004DA004F003FF00BF5A483830006840F05B
:1021400080505849383108600846006800F08050D7
:10215000009000BF00BF5648006840F480705449AA
:102160000860FFF75DFA054606E0FFF759FA401BE5
:10217000642801D90320C3E64D48006800F480704C
:102180000028F2D00020474968310870FFF748FA6C
:10219000054608E0FFF744FA401B41F288318842C7
:1021A00001D90320ACE63F4868300068C0F3400026
:1021B0000028EFD1207A3B4968310870A068A0B1AF
:1021C000FFF72EFA054608E0FFF72AFA401B41F216
:1021D0008831884201D9032092E63248683000688D
:1021E000C0F340000028EFD013E0FFF719FA0546CE
:1021F00008E0FFF715FA401B41F28831884201D907
:1022000003207DE6274868300068C0F340000028BE
:10221000EFD1A06928B1A069012802D0A0690228E5
:1022200000D104E040F2F5110FA004F087FEA06990
:1022300000287AD01B48006800F00C00082875D0F0
:10224000A069022873D1E06918B1E069B0F5800F88
:1022500000D104E04FF4FF7103A004F06FFE206A88
:102260003F2827D82CE000002E2E5C2E2E5C4472D6
:1022700069766572735C53544D3332463478785FB7
:1022800048414C5F4472697665725C5372635C735B
:10229000746D3332663478785F68616C5F72636343
:1022A0002E6300000838024000004742800E47427B
:1022B0000070004040F2FF11AFF2540004F03EFE07
:1022C000606AC02804D3606AB0F5D87F00D805E002
:1022D0004FF40071AFF2700004F030FEA06A0228E3
:1022E00008D0A06A042805D0A06A062802D0A06AF7
:1022F000082800D105E040F20121AFF2940004F07B
:102300001DFEE06A042803D3E06A0F2800D805E028
:1023100040F20221AFF2B00004F010FE0020344978
:102320000866FFF77DF9054609E05EE05BE045E001
:10233000FFF776F9401B642801D90320E0E52D481A
:102340000068C0F340600028F2D1D4E907010843D7
:1023500047F6C07292FAA2F2B2FA82F2616A914032
:1023600008430122A16AC2EB51014FF4403292FAB4
:10237000A2F2B2FA82F2914008434FF0706292FAF0
:10238000A2F2B2FA82F2E16A914008431949091DAA
:102390000860012016490866FFF742F9054606E085
:1023A000FFF73EF9401B642801D90320A8E5114836
:1023B0000068C0F340600028F2D016E000200C490D
:1023C0000866FFF72DF9054606E0FFF729F9401BDF
:1023D000642801D9032093E506480068C0F34060F3
:1023E0000028F2D101E001208AE5002088E5000004
:1023F000000047420038024010B504460CB90120E5
:1024000010BD606818B16068B0F5827F00D103E04C
:10241000B82162A004F092FDA06838B1A068B0F5C0
:10242000806F03D0A068B0F5004F00D103E0B92160
:102430005AA004F083FDE068B0F5006F01D0E068B9
:1024400000B903E0BA2155A004F078FD206910B16D
:102450002069022800D103E0BB2150A004F06EFDEA
:10246000606910B16069012800D103E0BC214BA074
:1024700004F064FDA069B0F5007F05D0A06918B133
:10248000A069B0F5802F00D103E0BD2143A004F086
:1024900055FDE069A0B1E069082811D0E069102875
:1024A0000ED0E06918280BD0E069202808D0E06938
:1024B000282805D0E069302802D0E069382800D10A
:1024C00003E0BE2135A004F039FD206A10B1206A76
:1024D000802800D103E0BF2130A004F02FFD606A06
:1024E00010B1606A102800D103E0C0212BA004F0D5
:1024F00025FDA06A18B1A06AB0F5005F00D103E025
:10250000C12126A004F01AFDE06A20B1E06AB0F50E
:10251000803F00D203E0C22120A004F00FFD94F818
:10252000510028B9002084F85000204600F054F8EB
:10253000022084F851002068006820F040002168E3
:102540000860D4E901010843E168084321690843B0
:1025500061690843218B01F400710843E169084374
:10256000216A0843A16A0843216808600421A06920
:1025700001EA1040616A0843216848602168E06A06
:1025800008612068C06920F400602168C8610020EB
:102590006065012084F85100002031E72E2E5C2E6A
:1025A0002E5C447269766572735C53544D333246C7
:1025B0003478785F48414C5F4472697665725C5349
:1025C00072635C73746D3332663478785F68616C03
:1025D0005F7370692E63000010B586B004463F49F2
:1025E0002068884247D100BF3D48006840F00100A4
:1025F0003B4908600846006800F00100009000BFF9
:1026000000BF00BF0846006840F0020008600846AE
:10261000006800F00200009000BF00BF00BF30481B
:102620001430006840F480502D4914310860084689
:10263000006800F48050009000BF00BFC0200190EF
:1026400002200290002003900320049005200590B2
:1026500001A92448FEF79EFD082001900220029067
:1026600000200390032004900520059001A91E4836
:10267000FEF790FD30E01D49206888422CD100BF54
:102680001748006840F002001549086008460068D5
:1026900000F00200009000BF00BF00BF10481030E3
:1026A000006840F480400E49103108600846006818
:1026B00000F48040009000BF00BF4FF460400190E4
:1026C0000220029000200390032004900520059032
:1026D00001A90548FEF75EFD06B010BD00300140BF
:1026E0003038024000000240000402400038004040
:1026F0002DE9F84F04460E4617461D46DDF8289092
:102700004FF00008C24694F85180B8F1010F02D092
:10271000B8F1220F73D10EB107B115B90120BDE890
:10272000F88FA06800B904E04FF42671C9A004F046
:1027300005FC00BF94F85000012801D10220EEE70B
:10274000012084F8500000BF94F85100012802D104
:10275000322084F8510000206065A763A587E587D3
:102760002663A586E586A064E064A06AB0F5005FF4
:102770000DD100BF2068006820F400502168086077
:102780002068006840F400502168086000BF20689D
:10279000006800F04000402805D02068006840F044
:1027A000400021680860E068B0F5006F75D160688E
:1027B00030B16068B0F5827F0CD1E08E012809D17C
:1027C000206B00882168C860206B801C2063E08E2D
:1027D000401EE086E08EF0B9A06AB0F5005F05D13A
:1027E0002068006840F48050216808604B46002251
:1027F0000121204601F0C0FF10B103208FE726E140
:102800002068C068A16B0880A06B801CA063E08F6B
:10281000401EE087C6E031E04B4600220221204600
:1028200001F0AAFF08B1032079E7206B0088216836
:10283000C860206B801C2063E08E401EE086E08E26
:1028400048B9A06AB0F5005F05D12068006840F47F
:102850008050216808604B4600220121204601F08B
:102860008BFF08B103205AE72068C068A16B08807D
:10287000A06B801CA063E08F401EE087E08E0028E4
:10288000CADC60680028C5D14B46002201212046E1
:1028900001F072FF10B1032041E70AE02068C06830
:1028A000A16B0880A06B801CA063E08F401EE087B6
:1028B00078E0606830B16068B0F5827F0BD1E08E5F
:1028C000012808D1216B481C206308782168C86062
:1028D000E08E401EE086E08ED0B9A06AB0F5005FC1
:1028E00005D12068006840F48050216808604B469C
:1028F00000220121204601F03FFF08B103200EE72E
:102900002068C068A16B0870E08F401EE08749E036
:1029100030E04B4600220221204601F02DFF08B195
:102920000320FCE6216B481C206308782168C860FE
:10293000E08E401EE086E08E48B9A06AB0F5005FE8
:1029400005D12068006840F48050216808604B463B
:1029500000220121204601F00FFF08B10320DEE62E
:102960002068C068C1B2A26B501CA0631170E08FD8
:10297000401EE087E08E0028CBDC606890B94B46B3
:1029800000220121204601F0F7FE08B10320C6E62F
:102990002068C068C1B2A26B501CA0631170E08FA8
:1029A000401EE087A06AB0F5005F12D14B460022BE
:1029B0000121204601F0E0FE28B1606D40F00200E8
:1029C00060650320ABE62068C06880B20090BDF867
:1029D00000004B4601228021204601F0CDFE28B1A7
:1029E000606D40F020006065032098E6012084F8C7
:1029F000510020688068C0F3001AA06AB0F5005F3B
:102A00001FD1BAF1000F1CD0606D40F0020060656C
:102A1000A06AB0F5005F0DD100BF2068006820F407
:102A20000050216808602068006840F40050216868
:102A3000086000BF00BF002084F8500000BF0120E4
:102A40006DE600BF002084F8500000BF67E602205A
:102A500065E600002E2E5C2E2E5C4472697665724F
:102A6000735C53544D3332463478785F48414C5F41
:102A70004472697665725C5372635C73746D333251
:102A8000663478785F68616C5F7370692E630000EC
:102A9000704770B504462546681EB0F1807F01D3AB
:102AA00001200FE0681E4FF0E02148610F214FF038
:102AB000FF3001F0C7FD00204FF0E02188610720C2
:102AC0000861002070BD10B5FFF7E2FF10BD704730
:102AD000F8B50446002500262068006800F00105CE
:102AE0002068C06800F480766DB166B100BF2068D0
:102AF0000068009020684068009000BF00BFE06B55
:102B000040F00100E06320680068C0F340052068E1
:102B1000406900F001066DB166B100BF2068006831
:102B2000009020684068009000BF00BFE06B40F05C
:102B30000400E06320680068C0F3800520684069F5
:102B400000F001066DB166B100BF2068006800901A
:102B500020684068009000BF00BFE06B40F00200BA
:102B6000E06320680068C0F3C0052068406900F099
:102B700001066DB166B100BF206800680090206852
:102B80004068009000BF00BFE06B40F00800E063C9
:102B900020680068C0F340152068C06800F0200677
:102BA0001DB116B1204601F0BBFF20680068C0F3DC
:102BB000C0152068C06800F080061DB116B120461F
:102BC00002F070F920680068C0F380152068C068C2
:102BD00000F040061DB116B1204601F07DFFE06B0C
:102BE00028B1012084F839002046FFF770FFF8BDB6
:102BF00010B504460CB9012010BDA069002824D0EE
:102C00003E492068884207D03D492068884203D069
:102C10003C492068884200D103E0FC213AA004F03E
:102C20008DF9A06958B1A069B0F5807F07D0A0697F
:102C3000B0F5007F03D0A069B0F5407F00D116E069
:102C4000FD2131A004F07AF911E02C492068884276
:102C500007D02B492068884203D02A49206888423F
:102C600000D104E040F2011127A004F067F9A06848
:102C700018B1A068B0F5805F00D104E040F2031104
:102C800021A004F05BF9E06918B1E069B0F5004FEC
:102C900000D104E04FF482711BA004F04FF994F8C6
:102CA000390028B9002084F83800204600F04AF89E
:102CB000022084F839002068C06820F400502168A0
:102CC000C860204601F08AFF2068006920F4904027
:102CD000216808612068406920F02A002168486165
:102CE0002068C06840F400502168C8600020E0639C
:102CF000012084F8390000207EE700000010014028
:102D000000440040001401402E2E5C2E2E5C4472C4
:102D100069766572735C53544D3332463478785F0C
:102D200048414C5F4472697665725C5372635C73B0
:102D3000746D3332663478785F68616C5F75617288
:102D4000742E630010B586B004461D492068884281
:102D500033D100BF1B48006840F0010019490860EA
:102D60000846006800F00100009000BF00BF00BFEF
:102D700014481030006840F40030124910310860E7
:102D80000846006800F40030009000BF00BF0C202F
:102D9000019002200290002003900320049007205D
:102DA000059001A90848FEF7F5F9002211462620F2
:102DB000FEF7EAFC2620FEF7B1FC06B010BD0000CD
:102DC00000440040303802400000024070472DE9C6
:102DD000F04704460D46164699464FF0000894F811
:102DE0003980B8F1010F02D0B8F1220F65D105B1D9
:102DF00016B90120BDE8F08700BF94F8380001281B
:102E000001D10220F6E7012084F8380000BF00203D
:102E1000E06394F83900222803D1322084F8390085
:102E200002E0122084F83900A684E68428E0E08CD1
:102E3000401EE084A068B0F5805F14D14B460022AC
:102E40008021204602F066F808B10320D2E72F4621
:102E50003888C0F3080021684860206908B9AD1CB3
:102E60000EE06D1C0CE04B4600228021204602F053
:102E700051F808B10320BDE715F8010B216848603F
:102E8000E08C0028D3DC4B4600224021204602F093
:102E900041F808B10320ADE794F83900322803D196
:102EA000222084F8390002E0012084F8390000BFB4
:102EB000002084F8380000BF9CE702209AE77047A2
:102EC0002DE9F84FFEF7BAFB00BFFE48006840F05E
:102ED0000100FC4908600846006800F0010000900D
:102EE00000BF00BF8815F84908600020486088606E
:102EF0000220C860F548FEF74DF900BFF1480068B0
:102F000040F00100EF4908600846006800F0010049
:102F1000009000BF00BF4815EB49086000204860E2
:102F200088600220C860E948FEF734F900BFE54830
:102F3000006840F00100E34908600846006800F0BE
:102F40000100009000BF00BF0120DF4908600020A1
:102F5000486088600220C860DC48FEF71BF900204A
:102F6000FEF7DAF881460120FEF7D6F88246022005
:102F7000FEF7D2F88346FEF7F9F80646002512E080
:102F80002846FEF7C9F88046FDF7E8FC04466800CD
:102F900000EB400101EBC00006EBC007384661685A
:102FA0008847681CC5B2032DEADB002000F022FD33
:102FB0008046A0684146426B48469047012000F099
:102FC00019FD8046A0684146426B48469047002064
:102FD00000F010FD8046A0684146426B5046904785
:102FE000012000F007FD8046A0684146426B504634
:102FF0009047002000F0FEFC8046A0684146426BEE
:1030000058469047012000F0F5FC8046A0684146F4
:10301000426B58469047002000F0ECFC8046A068C8
:1030200042F2107300224146D0F810C05846E047E3
:1030300000BF002000F0DEFC8046A068012241466F
:10304000836C584698470028F3D0002000F0D2FC4B
:103050008046A0684146426B58469047002000F0E9
:10306000C9FC8046A0684146C26A5046904700208D
:1030700000F0C0FC8046A06847F230530022414671
:10308000D0F808C05046E04700BF4FF400718F48A9
:10309000FEF75AFA0028F8D0002000F0ABFC80467A
:1030A000A0684146826B50469047002000F0A2FC89
:1030B0008046A06847F2305301224146D0F808C04C
:1030C0005046E04700BF4FF400718048FEF73CFADD
:1030D0000028F8D100F08EFC8046A0684146826B43
:1030E00050469047002000F085FC8046A06841468D
:1030F000C26A504690479FED760A02F083F8BCEE14
:10310000C00A10EE108A002000F074FC0090A06845
:1031100043460122D0F810C050460099E04700BF56
:10312000002000F067FC8046A06801224146836CC5
:10313000504698470028F3D0002000F05BFC804602
:10314000A0684146426B50469047012000F052FC77
:103150008046A0684146C26A50469047012000F070
:1031600049FC8046A06847F2305301224146D0F81E
:1031700008C05046E04700BF01215448FEF7E4F97B
:103180000028F9D0012000F035FC8046A0684146B7
:10319000826B50469047012000F02CFC8046A068CE
:1031A00047F2305300224146D0F808C05046E0476D
:1031B00000BF01214548FEF7C7F90028F9D10120D9
:1031C00000F018FC8046A0684146826B504690474C
:1031D000012000F00FFC8046A0684146C26A5046BC
:1031E00090479FED3C0A02F00DF8BCEEC00A10EECD
:1031F000108A012000F0FEFB0090A06843460022E8
:10320000D0F810C050460099E04700BF012000F000
:10321000F1FB8046A06801224146836C50469847E6
:103220000028F3D0012000F0E5FB8046A06841466D
:10323000426B5046904700BF002000F0DBFB804609
:10324000A06801224146836C504698470028F3D07D
:10325000012000F0CFFB8046A0684146C26A484684
:103260009047012000F0C6FB8046A06847F230532B
:1032700001224146D0F808C04846E04700BF4FF45D
:1032800080711248FEF760F90028F8D0012000F0A4
:10329000B1FB8046A0684146826B484690470120BA
:1032A00000F0A8FB8046A06847F230530022414658
:1032B000D0F808C04846E04700BF4FF4807103488B
:1032C0000AE0000030380240C4050020000002403F
:1032D0006666263FCDCC4C3FFEF736F90028ECD190
:1032E000012000F087FB8046A0684146826B48467B
:1032F0009047012000F07EFB8046A0684146C26AEC
:10330000484690479FED1B0A00F038F8BCEEC00A13
:1033100010EE108A012000F06DFB0090A06843467B
:103320000022D0F810C048460099E04700BF0120B5
:1033300000F060FB8046A06801224146836C48464D
:1033400098470028F3D09FED0C0A01F05BFFBCEE1C
:10335000C00A10EE108A012000F04CFB0090A0681B
:1033600043460122D0F810C050460099E047BDE81E
:10337000F88F0000022BB73F3333333F10B52DEDEC
:10338000068BB0EE408A18EE100AFDF7B4F841EC57
:103390001A0B9FED080B53EC102BFCF7BEFF41EC12
:1033A000190BFDF7D3F808EE900AB0EE680ABDECF1
:1033B000068B10BD000000007052FB4070B5054642
:1033C0000C4600261821284600F0F2F93549096814
:1033D00008800F2C62D2DFE804F0080E141A2026B1
:1033E0002C32383E444A50565C002E480068007823
:1033F00000F0010652E02B4800680078C0F3400658
:103400004CE0284800680078C0F3800646E0254874
:1034100000680078C0F3C00640E0224800680078E9
:10342000C0F300163AE01F4800680078C0F3411668
:1034300034E01C4800680078C0F3C0162EE019483C
:1034400000680088C0F3002628E01648006800885D
:10345000C0F3402622E0134800680088C0F38026AD
:103460001CE0104800680088C0F3C02616E00D4834
:1034700000680088C0F3003610E00A480068008841
:10348000C0F340360AE0074800680088C0F3803681
:1034900004E0044800680088C60B00BF00BF304647
:1034A00070BD0000A800002070B504460D463835F8
:1034B00055ED090AB0EE600A01F0E8F9A08355ED78
:1034C000080AB0EE600A01F0F9F9E08355ED070A49
:1034D000B0EE600A01F04CFA208455ED060AB0EE19
:1034E000600A01F05DFA608455ED050AB0EE600AED
:1034F00001F0FCF9A08415ED040ADFED7E0A20EE50
:10350000200A55ED0E0A80EE201ABCEEC10A10EE1C
:10351000100AC1B22620015515ED030ADFED750A28
:1035200020EE200A55ED0E0A80EE201ABCEEC10AEC
:1035300010EE100AC1B22720015515ED020ADFED89
:103540006D0A20EE200A55ED0E0A80EE201ABCEE20
:10355000C10A10EE100AC1B22820015515ED010A6A
:10356000DFED640A20EE200A55ED0E0A80EE201AE7
:10357000BCEEC10A10EE100AC1B229200155D5EDEA
:10358000000AB0EE600A01F0DBF96085D5ED010AB2
:10359000B0EE600A03F0A8FE84F82C00D5ED020A14
:1035A000B0EE600A03F070FE84F82D00D5ED030A3A
:1035B000B0EE600A03F080FE84F82E00297C84F8C7
:1035C0002F10D5ED050AB0EE600A03F017FD84F860
:1035D0003100D5ED060AB0EE600A03F041FD84F833
:1035E0003200297F84F83310697F84F83410E98B26
:1035F000383DE186A28B2078A1680B6804219847AA
:10360000E28B2078A1680B6805219847228C2078EE
:10361000A1680B6806219847628C2078A1680B6826
:1036200007219847A28C2078A1680B680821984749
:1036300026210A5D2078A1680B6809219847272177
:103640000A5D2078A1680B680A21984728210A5D45
:103650002078A1680B680B21984729210A5D207802
:10366000A1680B680C219847628D2078A1680B68CF
:103670000D21984794F82C202078A1680B680E2122
:10368000984794F82D202078A1680B680F2198475F
:1036900094F82E202078A1680B681021984794F8A0
:1036A0002F202078A1680B681121984794F83120C9
:1036B0002078A1680B681321984794F8322020786D
:1036C000A1680B681421984794F833202078A168EA
:1036D0000B681521984794F834202078A1680B686E
:1036E00016219847E28E2078A1680B681721984729
:1036F00070BD000000008043F8B505460E4600206E
:1037000016490870002425E0154A118950680022E6
:10371000FDF74CFF0A2006EB440205EB44010223AF
:1037200000901048FEF7E4FF0D4A1189506801220D
:10373000FDF73CFF00200C49087005E000BF0A4877
:103740000078401C08490870074800781428F5DB09
:10375000601CC4B2042CD7DBF8BD0000A40000201C
:10376000B403002010040020AC00002070B5034614
:103770000C460020012108E004EB4105ED5C561ADF
:10378000F600B54028434D1CE9B20329F4DD70BDB5
:1037900070B5DDE9044501EB0016327001EB00164F
:1037A000736001EB0016B46001EB0016F56070BDAC
:1037B0002DE9FC4105460C460020009023460222DC
:1037C0000D490190284600F04DF90C490A4800F0D7
:1037D00067F90B490948FFF78FFF04EB840009499B
:1037E00001EB8000867B324605492846FFF7BEFF85
:1037F00007463846BDE8FC81940300209400002071
:103800009C000020887300080146192906DA01EBA4
:103810008100034A02EB8000401C704701A0FCE7D6
:1038200088730008000000007CB50446002000906A
:10383000034612220A490190204600F013F9094973
:10384000074800F02DF908490648FFF755FF022206
:1038500005492046FFF78AFF85B228467CBD000057
:1038600094030020940000209C0000201CB5044616
:103870000020009003460A2206490190204600F0ED
:10388000F1F80549034800F00BF904490248FFF735
:1038900033FF1CBD94030020940000209C000020F6
:1038A0001CB504460020009003460B2206490190F7
:1038B000204600F0D7F80549034800F0F1F8044924
:1038C0000248FFF719FF1CBD94030020940000205C
:1038D0009C0000207CB505460C46B4F5800F10D244
:1038E000002000902346062206490190284600F059
:1038F000B9F80549034800F0D3F804490248FFF736
:10390000FBFE7CBD94030020940000209C0000205E
:103910007CB506460D461446B4F5800F10D2002043
:103920002B4607220749CDE90040304600F09AF8BF
:103930000549044800F0B4F804490348FFF7DCFEE9
:103940007CBD000094030020940000209C00002017
:103950002DE9FC4107460C4615461E462346082223
:1039600007493846CDE9005600F07CF8054904487F
:1039700000F096F804490348FFF7BEFEBDE8FC815D
:1039800094030020940000209C0000201CB50446F5
:10399000002000900346112206490190204600F0C5
:1039A00061F80549034800F07BF804490248FFF735
:1039B000A3FE1CBD94030020940000209C00002066
:1039C0001CB504460020009003460F2206490190D2
:1039D000204600F047F80549034800F061F8044923
:1039E0000248FFF789FE1CBD9403002094000020CC
:1039F0009C000020014619B1002903DD022901DAEB
:103A000008467047FF20FCE77CB506460C46154685
:103A10000020234605220749CDE90050304600F03A
:103A200021F80549034800F03BF804490248FFF734
:103A300063FE7CBD94030020940000209C000020C5
:103A400010B50549054800F02BF805490248FFF775
:103A500053FE034810BD0000940000209403002092
:103A60009C0000202DE9FC4305460C4616461F46E7
:103A7000DDE909890948007828B90120074908705B
:103A8000204600F07BFA3B46324621462846CDE9E7
:103A90000089FFF77DFEBDE8FC830000A400002044
:103AA000F0B503460A46002500210EE0002008E09C
:103AB0004FF0000C2E466F1CFDB202F806C0461CEB
:103AC000F0B20228F4DB4E1CF1B20429EEDB002038
:103AD0001DE103EB00163678C6EBC6068E4F07EBEA
:103AE0004606367B165403EB00163678132E0BD29F
:103AF000DFE806F00A0B313E5B688596B3DDFEFD1C
:103B0000FCFBFAF9F8F7F600FEE0165C03EB001791
:103B10007F6807EB8707DFF804C21CF827703E4375
:103B2000165403EB0016766806EB8606674607EB2D
:103B30008606B47B01210AE003EB0016B668671A1B
:103B4000FF00FE4000EB4107D6554E1CF1B2661C4B
:103B5000B142F1DBD8E0165C03EB00177F6807EB9E
:103B60008707DFF8B8C11CF827703E431654CBE036
:103B7000165C03EB00177F6807EBC707DFF8A0C1EF
:103B800067443F7A3E43165401210BE003EB0016D5
:103B9000B668C1F10307FF00FE4000EB4107D655B0
:103BA0004E1CF1B20429F1DBAEE0165C03EB00170A
:103BB0007F6807EBC707DFF868C167443F7A3E4379
:103BC0001654A1E0165C03EB00177F6807EBC707EC
:103BD000DFF84CC167443F7A3E43165401210BE0A5
:103BE00003EB0016B668C1F10307FF00FE4000EBCF
:103BF0004107D6554E1CF1B20429F1DB84E00121C6
:103C00000BE003EB00167668C1F10307FF00FE40EE
:103C100000EB4107D6554E1CF1B20429F1DB73E0ED
:103C2000165C03EB00177F6807EBC707DFF8F0C0EF
:103C300067443F7A3E43165401210BE003EB001624
:103C4000B668C1F10307FF00FE4000EB4107D655FF
:103C50004E1CF1B20429F1DB56E0165C03EB0017B1
:103C60007F6807EB8707DFF8BCC067443F7946EA07
:103C7000C7061654165C03EB0017BF6807EBC707AF
:103C8000DFF89CC067443F7A3E43165401210BE0A5
:103C900003EB0016F668C1F10307FF00FE4000EBDE
:103CA0004107D6554E1CF1B20429F1DB2CE0165C1D
:103CB00003EB00177F6807EB8707DFF868C06744EE
:103CC0003F7946EAC7061654165C03EB0017BF6837
:103CD00007EBC707DFF848C067443F7A3E4308E078
:103CE00011E00FE00DE00BE009E007E005E003E084
:103CF00001E0165408E007E006E005E004E003E018
:103D000002E001E000E000BF00BF461CF0B2022864
:103D1000FFF6DFAEF0BD00007C7500088873000878
:103D200086760008987600083CB505460C460020CB
:103D3000009023460222034901902846FFF792FE95
:103D40003CBD0000940300201CB5044600200090F8
:103D500003461222024901902046FFF783FE1CBD54
:103D6000940300201CB504460020009003460A225C
:103D7000024901902046FFF775FE1CBD9403002008
:103D80001CB504460020009003460B220249019016
:103D90002046FFF767FE1CBD940300203CB5054696
:103DA0000C46002000902346062203490190284635
:103DB000FFF758FE3CBD0000940300207CB506468A
:103DC0000C4615460020234607220349CDE9005042
:103DD0003046FFF747FE7CBD94030020FCB5074644
:103DE0000C4615461E462346082203493846CDE9AF
:103DF0000056FFF737FEFCBD940300201CB50446B7
:103E00000020009003461122024901902046FFF74E
:103E100029FE1CBD940300201CB504460020009020
:103E200003460F22024901902046FFF71BFE1CBDEE
:103E3000940300207CB506460C4615460020234618
:103E400005220349CDE900503046FFF70BFE7CBD4B
:103E5000940300207CB506460C46154600202346F8
:103E600009220349CDE900503046FFF7FBFD7CBD38
:103E7000940300201CB504460020009003460D2248
:103E8000024901902046FFF7EDFD1CBD9403002080
:103E90001CB504460020009003460C220249019004
:103EA0002046FFF7DFFD1CBD940300207CB50646CD
:103EB0000C4615460020234603220349CDE9005055
:103EC0003046FFF7CFFD7CBD940300207CB506464D
:103ED0000C4615460020234601220349CDE9005037
:103EE0003046FFF7BFFD7CBD940300201CB504469F
:103EF0000020009003461022024901902046FFF75F
:103F0000B1FD1CBD940300201CB5044600200090A8
:103F100003460E22024901902046FFF7A3FD1CBD77
:103F2000940300203CB505460C4600200090234633
:103F30000422034901902846FFF794FD3CBD000090
:103F4000940300207CB506460C4615460020234607
:103F500009220749CDE900503046FFF783FD0549A6
:103F60000348FFF79DFD04490248FFF7C5FB7CBDF0
:103F700094030020940000209C00002001460020B3
:103F80000EE0002201EB00131A7001EB00135A60DF
:103F900001EB00139A6001EB0013DA60421CD0B20F
:103FA0000228EEDB704700001CB50446002000909C
:103FB00003460D22064901902046FFF753FD0549AF
:103FC0000348FFF76DFD04490248FFF795FB1CBD50
:103FD00094030020940000209C0000201CB504469F
:103FE0000020009003460C22064901902046FFF76E
:103FF00039FD05490348FFF753FD04490248FFF71F
:104000007BFB1CBD94030020940000209C0000203A
:104010007CB506460C461546002023460322074978
:10402000CDE900503046FFF71DFD05490348FFF775
:1040300037FD04490248FFF75FFB7CBD9403002075
:10404000940000209C0000207CB506460C461546D6
:104050000020234601220749CDE900503046FFF7F2
:1040600001FD05490348FFF71BFD04490248FFF71E
:1040700043FB7CBD94030020940000209C000020A2
:104080001CB504460020009003461022064901900A
:104090002046FFF7E7FC05490348FFF701FD044907
:1040A0000248FFF729FB1CBD940300209400002068
:1040B0009C0000201CB504460020009003460E2200
:1040C000064901902046FFF7CDFC05490348FFF75C
:1040D000E7FC04490248FFF70FFB1CBD94030020D6
:1040E000940000209C0000207CB505460C46002072
:1040F000009023460422074901902846FFF7B2FCAE
:1041000005490448FFF7CCFC04490348FFF7F4FADB
:104110007CBD000094030020940000209C0000203F
:104120007047000070B52148214908604FF4827043
:10413000486000211E488160C160022101610121A7
:104140004161490281610021016241628162FDF7A2
:1041500029FE06461748B6FBF0F085B2022D01DABB
:1041600000241DE0042D01DA082419E0082D01DAED
:10417000102415E0102D01DA182411E0202D01DAA9
:1041800020240DE0402D01DA282409E0802D01DAF9
:10419000302405E0FF2D01DC382401E000BFFEE7FC
:1041A0000348C461FEF728F970BD000000300140EB
:1041B00010040020404B4C0010B5FFF7B3FF10BDBA
:1041C00010B50948094908604FF4E1304860002102
:1041D00006488160C16001610C214161002181615B
:1041E000C161FEF705FD10BD00440040C004002081
:1041F0002DE9F04113A11B4800F0F0FF00F056FF3D
:10420000FCF7B4FF0746002412E02046FCF784FFC9
:104210008046FCF7A3FB0546600000EB400101EB84
:10422000C00007EBC006304669688847601CC4B20E
:10423000032CEADB0CA10B4800F0D0FF00F036FFA6
:10424000BDE8F081496E697469616C2076616C75B6
:10425000657320666F722072656769737465727327
:104260003A0A0D00C0040020437573746F6D207608
:10427000616C75657320666F72207265676973740F
:104280006572733A0A0D00002DE9F04F2DED0E8B8B
:1042900083B0B0EE40CAF0EE60CAB0EE41AAF0EED4
:1042A00061AAB0EE42BAF0EE62BAB0EE438A0646B8
:1042B000FDF7C4F90020FCF72FFF82460120FCF730
:1042C0002BFF02900220FCF727FF0190FCF74EFF26
:1042D0008046002512E02846FCF71EFF8146FCF7C9
:1042E0003DFB0446680000EB400101EBC00008EB19
:1042F000C007384661688847681CC5B2032DEADBF1
:10430000012E1AD10120FFF775FB8146A06841F20A
:10431000883301224946D0F810C00198E04700BF19
:104320000120FFF767FB8146A06801224946836CA4
:10433000019898470028F3D01BE0022E19D10120E4
:10434000FFF758FB8146A06841F2883300224946B6
:10435000D0F810C00198E04700BF0120FFF74AFBEA
:104360008146A06801224946836C0198984700283D
:10437000F3D0B5EEC08AF1EE10FA13D20020FFF7A9
:1043800039FB8146BFEE000A28EE000ABCEEC00AE7
:1043900010EE103AA06800224946D0F810C00198EB
:1043A000E0470EE00020FFF725FB8146A068BCEE49
:1043B000C80A10EE103A01224946D0F810C0019800
:1043C000E04700BF0020FFF715FB8146A0680122EF
:1043D0004946836C019898470028F3D0F0EE4B0AC9
:1043E000B0EE6A0AFCF73CFDB0EE40DAF0EE6C0A83
:1043F000B0EE4C0AFCF734FD7DEE408AF5EEC08A43
:10440000F1EE10FA13D20020FFF7F4FA8146BFEE66
:10441000000A28EE800ABCEEC00A10EE103AA0682E
:1044200000224946D0F810C05046E0470EE0002078
:10443000FFF7E0FA8146A068BCEEE80A10EE103AF9
:1044400001224946D0F810C05046E04700BF002086
:10445000FFF7D0FA8146A06801224946836C504696
:1044600098470028F3D0F0EE4B0AB0EE6A0A02F04B
:1044700067FDB0EE40EAF0EE6B0A00F0F7F8B0EE40
:1044800040DAF0EE4B0AB0EE6A0A02F059FDF0EEA7
:1044900040DAB0EE4D1AF0EE6B0AFCF7B5FDF0EE27
:1044A00040EAF0EE6C0AB0EE4C0A02F049FDB0EEC4
:1044B00040EAF0EE4A0A00F0D9F8B0EE40DAF0EE49
:1044C0006C0AB0EE4C0A02F03BFDF0EE40DAB0EEC2
:1044D0004D1AF0EE4A0AFCF797FD3EEEC09AF0EE58
:1044E0004B0AB0EE6A0A02F02BFDB0EE40DAF0EEB5
:1044F0006B0A00F0BBF8F0EE40DAF0EE6C0AB0EEBA
:104500004C0A02F01DFDB0EE40DAF0EE4A0A00F06F
:10451000ADF87DEEC09AB5EEC09AF1EE10FA18D261
:10452000B0EE490AFEF72AFFFFEE000A20EE200A4D
:10453000BCEEC00A10EE109A0120FFF75BFA83462A
:10454000A0684B4601225946D0F810C05046E047BB
:1045500013E0B0EE490AFEF711FFBCEEC00A10EE00
:10456000109A0120FFF746FA8346A0684B460022C6
:104570005946D0F810C05046E04700BF0120FFF771
:1045800039FA8146A06801224946836C5046984713
:104590000028F3D0F5EEC09AF1EE10FA18D2B0EE82
:1045A000690A00F02FFEFFEE000A20EE200ABCEEA2
:1045B000C00A10EE109A0020FFF71CFA8346A0688C
:1045C0004B4600225946D0F810C00298E04713E04D
:1045D000B0EE690A00F016FEBCEEC00A10EE109AAA
:1045E0000020FFF707FA8346A0684B460122594690
:1045F000D0F810C00298E04700BF0020FFF7FAF99A
:104600008146A06801224946836C02989847002899
:10461000F3D003B0BDEC0E8BBDE8F08F10B5FDF705
:104620000DF800F0DBF9FFF77BFDFFF7C5FDFFF7A5
:10463000C7FD10BD02480068C0F3022070470000AB
:104640000CED00E010B5002807DA0A07140E054A41
:1046500000F00F031B1FD45403E00A07130E024A95
:10466000135410BD18ED00E000E400E000B52DED9E
:10467000108B87B0B0EE408AF0EE608A9FED361B5B
:104680009FED370B01F074F98DED020B9FED321B9E
:104690009FED350B01F06CF9B0EE40BAF0EE60BA68
:1046A00018EE900AFBF727FF41EC1E0B9FED2A1B2B
:1046B000B0EE4E0AF0EE6E0A01F05AF9B0EE40DAB2
:1046C000F0EE60DA18EE100AFBF715FF41EC1E0B56
:1046D0009FED211BB0EE4E0AF0EE6E0A01F048F994
:1046E0008DED000B53EC1D2B9DED000B51EC100BD1
:1046F000FBF76CFD41EC1C0B53EC1B2BFBF707FE8F
:1047000041EC1A0B9DED020B53EC102BFBF7FFFD58
:104710009FED170B53EC102BCDE904019DED040B1D
:1047200051EC100BFBF76BFE41EC1F0BB0EE4F0A88
:10473000F0EE6F0A00F0A0FDB0EE409AF0EE609A45
:1047400051EC190BFBF702FF06909DED060A07B02E
:10475000BDEC108B00BD0000000000000000004018
:1047600000000000000069400000000000C072402E
:1047700000000000004CFD402DE9F04104460E46CB
:1047800017461D464FF00008FCF74AFF8046002FF1
:104790003ED132E0681C78B32DB1FCF741FFA0EBAD
:1047A0000800A84229D92068406820F0E00021686C
:1047B00048602068006820F0400021680860A06A16
:1047C000B0F5005F0DD100BF2068006820F40050F4
:1047D000216808602068006840F400502168086083
:1047E00000BF012084F8510000BF002084F8500071
:1047F00000BF0320BDE8F081FFE7206880683040FB
:10480000B04201D1012000E000200028C2D03BE0EE
:1048100030E0681C70B32DB1FCF702FFA0EB08007C
:10482000A84227D92068406820F0E000216848604D
:104830002068006820F0400021680860A06AB0F598
:10484000005F0DD100BF2068006820F4005021688F
:1048500008602068006840F400502168086000BFCC
:10486000012084F8510000BF002084F8500000BFF0
:104870000320BFE7206880683040B04201D10120AA
:1048800000E000200028C4D10020B3E7DFED090AD2
:10489000B4EEE00AF1EE10FA09D8DFED070A80EE77
:1048A000201AFCEEC10A10EE900A80B27047002078
:1048B000FCE7000071C66847FED46841DFED090AD5
:1048C000B4EEE00AF1EE10FA09D8DFED070A80EE47
:1048D000201AFCEEC10A10EE900A80B27047002048
:1048E000FCE7000071C66847FED4684110B52DEDA5
:1048F000048BB0EE408A18EE100AFBF7FCFD41EC89
:10490000190B9FED0C0B53EC102BFBF707FE0FD888
:10491000DFED0A0A88EE200AF6EE000A30EE600AA1
:10492000BCEEC00A10EE100A80B2BDEC048B10BDC4
:104930000020FAE700000000307CCE400000744107
:10494000DFED090AB4EEE00AF1EE10FA09D8DFED66
:10495000070A80EE201AFCEEC10A10EE900A80B21F
:1049600070470020FCE7000023207444F423743DCA
:10497000DFED090AB4EEE00AF1EE10FA09D8DFED36
:10498000070A80EE201AFCEEC10A10EE900A80B2EF
:1049900070470020FCE7000002E773460B247441D7
:1049A000DFED090AB4EEE00AF1EE10FA09D8DFED06
:1049B000070A80EE201AFCEEC10A10EE900A80B2BF
:1049C00070470020FCE70000BF1474440124743ECB
:1049D00010B5FCF72BFEFEF776F810BD00B593B0CE
:1049E00000BF2248006840F0805020490860084617
:1049F000006800F08050019000BF00BF00BF1C485D
:104A0000006820F4404040F400401949086008461E
:104A1000006800F44040019000BF00BF02200790F2
:104A200001200A9010200B9002200D9000210E9181
:104A300010210F914FF4A8711091042111910721B9
:104A4000129107A8FDF71EFA05200290022003909C
:104A5000002004904FF48050059000200690022121
:104A600002A8FCF743FF13B000BD0000403802402D
:104A7000007000401448006840F47000124908605B
:104A80001248006840F001001049086000200F49FA
:104A9000083108600D4800680D4908400B4908605E
:104AA0000C48091D0860081F006820F48020091FB9
:104AB0000860002005490C3108604FF00060024991
:104AC000803908607047000088ED00E0003802403F
:104AD000FFFFF6FE1030002410B504462068C068C1
:104AE00020F040002168C86094F83900322803D1D2
:104AF000222084F839000EE02068C06820F480701D
:104B00002168C8602068406920F001002168486180
:104B1000012084F839002046FEF7D1F9002010BDAD
:104B200070B50446002694F83960222E01D0322E4A
:104B300052D1A068B0F5805F13D1A56A206940B951
:104B400020684068C0F308002880A06A801CA0622A
:104B500019E020684068C0B22880A06A401CA062AA
:104B600011E0206938B920684068C1B2A26A501CBF
:104B7000A062117007E02068406800F07F01A26A1F
:104B8000501CA0621170E08D401E80B2E08508BB11
:104B90002068C06820F020002168C86094F83900BF
:104BA000322803D1122084F839000EE02068C06852
:104BB00020F480702168C8602068406920F00100FE
:104BC00021684861012084F839002046FEF7FEF88C
:104BD000002070BD0020FCE70220FAE72DE9F0413B
:104BE000044600259D496068884200D204E040F2F6
:104BF00036719BA002F0A2F9E06818B1E068B0F548
:104C0000005F00D104E040F2377195A002F096F900
:104C1000206938B12069B0F5806F03D02069B0F504
:104C2000C06F00D104E04FF4E7618DA002F086F977
:104C30004FF6F3716069084010B9606900B104E093
:104C400040F2397186A002F079F92068056925F4EF
:104C50004055E0680543206805612068C56849F251
:104C60000C6085432169A068084361690843E169D4
:104C7000084305432068C5602068456925F44075F0
:104C8000A069054320684561E069B0F5004F72D125
:104C900082492068884203D081492068884234D103
:104CA000FDF780F800EBC00101EB001061684900DE
:104CB000B0FBF1F06421B0FBF1F6FDF773F800EB07
:104CC000C00101EB001061684900B0FBF1F7FDF78E
:104CD00069F800EBC00101EB001061684900B0FB0E
:104CE000F1F06421B0FBF1F000EBC00101EB00102A
:104CF000A7EB8000322101EB00106421B0FBF1F042
:104D000066F31F1021688860A6E0FDF735F800EB18
:104D1000C00101EB001061684900B0FBF1F06421B3
:104D2000B0FBF1F6FDF728F800EBC00101EB001035
:104D300061684900B0FBF1F7FDF71EF800EBC00118
:104D400001EB001061684900B0FBF1F06421B0FB99
:104D5000F1F000EBC00101EB0010A7EB8000322165
:104D600001EB00106421B0FBF1F066F31F10216825
:104D7000886071E0FFE749492068884203D04849CC
:104D80002068884234D1FDF70DF800EBC00101EB3B
:104D9000001061688900B0FBF1F06421B0FBF1F60E
:104DA000FDF700F800EBC00101EB0010616889001D
:104DB000B0FBF1F7FCF7F6FF00EBC00101EB0010D0
:104DC00061688900B0FBF1F06421B0FBF1F000EB09
:104DD000C00101EB0010A7EB8000322101EB0010B5
:104DE0006421B0FBF1F066F31F102168886033E0A6
:104DF000FCF7C2FF00EBC00101EB00106168890005
:104E0000B0FBF1F06421B0FBF1F6FCF7B5FF00EB6D
:104E1000C00101EB001061688900B0FBF1F7FCF7FD
:104E2000ABFF00EBC00101EB001061688900B0FB33
:104E3000F1F06421B0FBF1F000EBC00101EB0010D8
:104E4000A7EB8000322101EB00106421B0FBF1F0F0
:104E500066F31F1021688860BDE8F081A137A000CB
:104E60002E2E5C2E2E5C447269766572735C5354F0
:104E70004D3332463478785F48414C5F44726976EE
:104E800065725C5372635C73746D33326634787828
:104E90005F68616C5F756172742E63000010014081
:104EA0000014014010B50146002391F83930122B4F
:104EB00001D0322B2CD18868B0F5805F0FD10A6AFF
:104EC0001088C0F308000C686060086918B9086AA7
:104ED000801C086209E0086A401C086205E00C6A50
:104EE000601C086220780C686060C88C401E80B22C
:104EF000C88458B90868C06820F080000C68E06079
:104F00000868C06840F040000C68E060002010BDF8
:104F10000220FCE72DE9F04104460E4617461D46E7
:104F20004FF00008FCF77CFB80469FBB2BE0681C21
:104F300048B32DB1FCF774FBA0EB0800A84222D9BE
:104F40002068C06820F080002168C8602068C068C0
:104F500020F020002168C8602068C06820F48070BC
:104F60002168C8602068406920F00100216848611C
:104F7000012084F8390000BF002084F8380000BF09
:104F80000320BDE8F081206800683040B04202D1C3
:104F9000012001E003E000200028C8D035E02AE02D
:104FA000681C40B32DB1FCF73BFBA0EB0800A84206
:104FB00021D92068C06820F080002168C86020687E
:104FC000C06820F020002168C8602068C06820F414
:104FD00080702168C8602068406920F00100216865
:104FE0004861012084F8390000BF002084F83800AF
:104FF00000BF0320C5E7206800683040B04201D1FF
:10500000012000E000200028CAD10020B9E70000FC
:1050100010B50348FDF75CFD014800F003F810BD32
:10502000C004002070B5044620684068C5B2E08D19
:10503000012801D00D2D30D1E08D401CE085A06A03
:10504000401EA0620020A16A087014A1204600F052
:10505000C5F800BF2068006800F020000028F9D1E2
:105060002068C06820F020002168C86094F83900EA
:10507000322803D1122084F839000EE02068C0687D
:1050800020F480702168C8602068406920F0010029
:1050900021684861012084F8390070BD526563655C
:1050A0006976656421200A0D0000000070B50020BB
:1050B000FCF732F8044611E00020FEF79BFC0546A1
:1050C00005E02946204600F00FF8681CC5B2012013
:1050D000FEF790FCA842F4DA601CC4B20220FCF790
:1050E0001BF8A042E8DA70BD2DE9F04106460D46F6
:1050F0003046FBF793FE002849D026A1264800F051
:105100006DF826A1244800F069F80021284602F035
:1051100081F880464146204800F060F828A11E48EA
:1051200000F05CF80021304602F074F880464146F9
:10513000194800F053F826A1174800F04FF8002452
:105140001FE021462846FEF733FB07462046FEF7C0
:105150005BFB80464146104800F040F81EA10E4817
:1051600000F03CF80321384602F054F880464146EE
:10517000094800F033F807A1074800F02FF8601C39
:10518000C4B2192CDDDB03A1034800F027F8BDE809
:10519000F08100000A0D0000C004002056616C750B
:1051A0006573206F66207468652072656769737423
:1051B000657273206F66204C363437305F230000F1
:1051C000206F66204578704272645F230000000003
:1051D0000A0D0A0D000000003A20000070B50646D6
:1051E0000D46002400BF2046611CCCB2285C00287C
:1051F000F9D1601EC4B20A23224629463046FDF783
:10520000E6FD70BD10B52DED068BB0EE408A18EEB0
:10521000100AFBF770F941EC1A0B9FED080B53ECE9
:10522000102BFBF77AF841EC190BFBF78FF908EE1E
:10523000900AB0EE680ABDEC068B10BD00000000BD
:105240007052FB4003B401984100009850EAC1201D
:1052500018BF04204A0D18BF40F0010040F2FF7251
:10526000B2EB515F08BF40F00200012808BF0520E3
:1052700002B070470000000010B5B94A2DED020BD6
:105280002DED0C8B82B00F9921F000409FEDB6CB35
:1052900090422CDBA0F140530E9AA3F17F631A4396
:1052A0000FD0B349884202DC16D10E98A0B19DED13
:1052B0000E0B02B0BDEC0C8B02B0BDE8104001F04B
:1052C000E3BD0029C1BF9FEDAC0B02B0BDEC0C8B60
:1052D00002B0C8BF10BD16E0012001F029FE02B0E7
:1052E000BDEC0C8B02B0BDE8104001F0E1BDA44A5A
:1052F0009FEDA59B9FEDA6AB90425EDAA6499FED80
:10530000A8CB814208DBB0EE4C0AF0EE6C0A02B08A
:10531000BDEC0C8B02B010BD9DED0E0B53EC102BB1
:1053200051EC100BFAF7F9FF41EC180B9E480621DF
:10533000B0EE480AF0EE680A784401F079FC53ECCC
:10534000182B51EC100BFAF7E8FF41EC1B0B9748B8
:10535000B0EE480AF0EE680A0421784401F068FCD7
:1053600053EC182B51EC100BFAF7D7FF53EC192B19
:10537000FAF72CFF41EC100B51EC1B0B53EC102BEC
:10538000FBF73DF841EC100B53EC102B9DED0E0B91
:1053900051EC100BFAF7C1FF53EC1A2BFAF7BAFFD6
:1053A0009DED0E1B53EC112BFAF7B4FF53EC1C2BA5
:1053B000FAF7B0FF41EC100BA9E79FED7D8B9FED55
:1053C0007EBB9DED0E0B002953EC192B51EC100BFD
:1053D00052DAFAF7FBFE53EC182BFAF79EFF41EC7A
:1053E000180B77480621B0EE480AF0EE680A7844B8
:1053F00001F01EFC53EC182B51EC100BFAF78DFF4B
:1054000041EC1D0B6F48B0EE480AF0EE680A04212B
:10541000784401F00DFC53EC182B51EC100BFAF70B
:105420007CFF53EC192BFAF7D1FE41EC190B51EC30
:10543000180B01F071FF41EC180B53EC192B51ECD8
:105440001D0BFAF7DCFF53EC182BFAF766FF53EC51
:105450001A2BFAF75CFF41EC100B51EC180B53ECD4
:10546000102BFAF7B3FE53EC1B2BFAF756FF53EC55
:105470001C2BFAF74FFF6DE0FAF74CFF53EC182B9B
:10548000FAF74BFF41EC180B01F046FF41EC1A0B09
:1054900000208DED00AB00909DED000B51EC1A0B40
:1054A00053EC102BFAF792FE9DED000B41EC1C0B18
:1054B00053EC102B51EC100BFAF72FFF53EC182B79
:1054C000FAF728FF53EC1C2BFAF799FF41EC1C0B61
:1054D0003D48B0EE480AF0EE680A0621784401F033
:1054E000A7FB53EC182B51EC100BFAF716FF41EC0D
:1054F0001D0B3648B0EE480AF0EE680A04217844E5
:1055000001F096FB53EC182B51EC100BFAF705FF4A
:1055100053EC192BFAF75AFE41EC100B51EC1D0B12
:1055200053EC102BFAF76BFF53EC1A2BFAF7F5FE3E
:1055300053EC1C2BFAF74AFE41EC100B53EC102BEA
:105540009DED000B51EC100BFAF740FE53EC1B2BBA
:10555000FAF7E3FE41EC100BD9E600000000000072
:105560000000F03F00000000182D4454FB210940CA
:105570000000F07F000000000000000000000000BC
:105580000000E03F00000000000000000000F03FCD
:10559000075C143326A6913C0000603C000000002C
:1055A000182D4454FB21F93F3C2600004A260000F8
:1055B000000000000000E03F00000000000000408C
:1055C000862500009425000098240000A6240000F1
:1055D00070B59B482DED020B2DED068B079D25F038
:1055E0000044A04218DC9748844202DC0AD10698A5
:1055F00040B19DED060BBDEC068B02B0BDE87040DE
:1056000001F042BC002DCCBF9FED8F0B9FED900BA6
:10561000BDEC068B02B070BD8F48A04215DD8F48EF
:10562000A042D8BF4FF0FF3458DD9DED060B51EC82
:10563000100BFFF707FE042808BF01F059FC9DED91
:10564000060BBDEC068B02B070BD9DED060B51EC58
:10565000100B01F0C7FCCDE9060181489FED828B5C
:10566000A0423CDD8248A0421FDD00249FED82ABBA
:105670009DED060B53EC1A2B51EC100BFAF7A6FD1F
:105680009DED060B41EC190B53EC1A2B51EC100B52
:10569000FAF743FE53EC182BFAF739FE53EC192BAB
:1056A000FAF7ADFECDE9060149E09DED060B0124B8
:1056B00053EC182B51EC100BFAF788FD9DED060BFF
:1056C00041EC190B53EC182B51EC100BFAF71FFEA1
:1056D00053EC192BFAF793FECDE906012FE0684849
:1056E000A0421FDD02249FED689B9DED060B53EC4D
:1056F000192B51EC100BFAF710FE53EC182BFAF79C
:1057000065FD9DED060B41EC180B53EC192B51EC8C
:10571000100BFAF7FCFD53EC182BFAF770FECDE9ED
:1057200006010CE09DED060B032453EC102B9FEDBE
:10573000580B51EC100BFAF762FECDE906019DED16
:10574000060B53EC102B51EC100BFAF7E6FD41EC75
:10575000180B53EC182BFAF7E0FD41EC190B4E48EF
:105760000621B0EE490AF0EE690A784401F060FAC9
:1057700053EC182B51EC100BFAF7CFFD41EC180B42
:105780004648B0EE490AF0EE690A0521784401F076
:105790004FFA53EC192B51EC100BFAF7BEFD41EC0C
:1057A000100B51EC180B53EC102B002C0EDAFAF7FF
:1057B0000DFD9DED061B53EC112BFAF7AEFD9DED93
:1057C000061B53EC112BFAF7A5FD35E0FAF7FEFCAA
:1057D0009DED061B53EC112BFAF79FFD41EC100BCE
:1057E0002F48784400EBC40090ED001B51EC100BE7
:1057F00053EC112BFAF78BFD9DED061B53EC112B8F
:10580000FAF785FD41EC100B2648784400EBC40004
:1058100090ED001B51EC100B53EC112BFAF77AFDB5
:1058200041EC100B002DA2BFBDEC068B02B070BD89
:1058300051EC100B81F0004141EC100B01E700002E
:10584000000010440000F07F182D4454FB21F93F64
:10585000182D4454FB21F9BF0000DC3F0000203E1E
:105860000000F33F00000000000000000000F03FD7
:105870000000E63F000000000000000000000040C3
:105880000080034000000000000000000000F83F1E
:10589000000000000000F0BFC222000078220000DB
:1058A00002220000BA21000010B52F499FED2C1BE9
:1058B0002DED020B84B0059820F000408842D8BF3F
:1058C0009DED040B2DDD2949884209D1049840B98A
:1058D0004FF0010001F02CFB01F0EAFA06B010BD18
:1058E00005DB9DED040B01F0CFFA06B010BD684654
:1058F0009DED040B00F0C8FE10F0030004BF9DED09
:10590000021B9DED000B0CD001280ED09DED021B5B
:105910009DED000B022817D0012001F005FA06B01A
:1059200010BD01F0CDF806B010BD9DED021B9DED40
:10593000000B012001F0F8F951EC100B81F000414F
:1059400006B041EC100B10BD01F0BAF851EC100B91
:1059500081F0004106B041EC100B10BD00000000CA
:105960000000000000000000FB21E93F0000F07F84
:105970002DE9F04D2DED040B2DED0E8B96B0DDE9EC
:105980002550279CDDF890A025F0004624F0004823
:10599000BAF1000F14BF0121002101EB4502FC49BF
:1059A00053184A1093422AD3002814BF012300231E
:1059B00003EB44030B44F7498B4220D358EA000120
:1059C0009FEDF59B76D0DFF8D8B35D4503D1BAF1F2
:1059D000000F05D188E0BAF1000F08BF002100D008
:1059E000012101EB450111F5001F08D8002814BF63
:1059F0000121002101EB440111F5001F0BD99DEDA0
:105A0000261B9DED240B16B0BDEC0E8B04B0BDE83B
:105A1000F04D01F043BA0027002DBCBFE149884595
:105A200021DAE1498845A8BF02271CDAC3451ADC00
:105A3000DE4901EB2851142908DDC1F1340220FAB6
:105A400002F101FA02F282420DD108E058B9C1F127
:105A5000140228FA02F101FA02F2424503D101F0E0
:105A60000101C1F1020756EA0A0124D1002C22DA11
:105A7000002D18BF022F01D0012F0AD0022001F003
:105A800057FA16B0BDEC0E8B04B0BDE8F04D01F036
:105A9000E3B9022001F04CFA01F0DEF951EC100BF1
:105AA00081F0004141EC100B16B0BDEC0E8B04B040
:105AB000BDE8F08D18E09FEDBEAB9FEDBF8B0028D9
:105AC00071D1B848804522D105F1804010F5801091
:105AD00008BFBAF1000F07D0B3450ADC002CA8BFFD
